{
	"data": {
		"bytecode": {
			"linkReferences": {},
			"object": "60806040523480156200001157600080fd5b50604051620021b3380380620021b38339818101604052810190620000379190620000e8565b806000806101000a81548173ffffffffffffffffffffffffffffffffffffffff021916908373ffffffffffffffffffffffffffffffffffffffff160217905550506200011a565b600080fd5b600073ffffffffffffffffffffffffffffffffffffffff82169050919050565b6000620000b08262000083565b9050919050565b620000c281620000a3565b8114620000ce57600080fd5b50565b600081519050620000e281620000b7565b92915050565b6000602082840312156200010157620001006200007e565b5b60006200011184828501620000d1565b91505092915050565b612089806200012a6000396000f3fe6080604052600436106100915760003560e01c8063b4b5b48f11610059578063b4b5b48f14610199578063c2db2c42146101db578063c457fb37146101f7578063d16aad6114610234578063e5afe3e61461025f57610091565b8063148507b81461009657806342f23b9e146100c157806349f0f84a146100ec5780636a4c3adf1461012f5780638c7a63ae14610158575b600080fd5b3480156100a257600080fd5b506100ab61029c565b6040516100b891906115cf565b60405180910390f35b3480156100cd57600080fd5b506100d66102c0565b6040516100e39190611603565b60405180910390f35b3480156100f857600080fd5b50610113600480360381019061010e919061164f565b6102cd565b604051610126979695949392919061169d565b60405180910390f35b34801561013b57600080fd5b506101566004803603810190610151919061170c565b61033f565b005b34801561016457600080fd5b5061017f600480360381019061017a919061164f565b610968565b60405161019095949392919061174c565b60405180910390f35b3480156101a557600080fd5b506101c060048036038101906101bb919061164f565b610cb8565b6040516101d29695949392919061179f565b60405180910390f35b6101f560048036038101906101f0919061164f565b610d24565b005b34801561020357600080fd5b5061021e6004803603810190610219919061164f565b6111b4565b60405161022b9190611603565b60405180910390f35b34801561024057600080fd5b506102496111d1565b6040516102569190611948565b60405180910390f35b34801561026b57600080fd5b506102866004803603810190610281919061164f565b6114ec565b6040516102939190611603565b60405180910390f35b60008054906101000a900473ffffffffffffffffffffffffffffffffffffffff1681565b6000600280549050905090565b600281815481106102dd57600080fd5b90600052602060002090600702016000915090508060000154908060010154908060020154908060030154908060040154908060050154908060060160009054906101000a900473ffffffffffffffffffffffffffffffffffffffff16905087565b60008060009054906101000a900473ffffffffffffffffffffffffffffffffffffffff1673ffffffffffffffffffffffffffffffffffffffff16636352211e846040518263ffffffff1660e01b815260040161039b9190611603565b602060405180830381865afa1580156103b8573d6000803e3d6000fd5b505050506040513d601f19601f820116820180604052508101906103dc9190611996565b905060008060009054906101000a900473ffffffffffffffffffffffffffffffffffffffff1673ffffffffffffffffffffffffffffffffffffffff166381e1b7e1856040518263ffffffff1660e01b815260040161043a9190611603565b602060405180830381865afa158015610457573d6000803e3d6000fd5b505050506040513d601f19601f8201168201806040525081019061047b91906119d8565b905060008060009054906101000a900473ffffffffffffffffffffffffffffffffffffffff1673ffffffffffffffffffffffffffffffffffffffff16635bc548ea866040518263ffffffff1660e01b81526004016104d99190611603565b602060405180830381865afa1580156104f6573d6000803e3d6000fd5b505050506040513d601f19601f8201168201806040525081019061051a91906119d8565b905060008060009054906101000a900473ffffffffffffffffffffffffffffffffffffffff1673ffffffffffffffffffffffffffffffffffffffff1663f55ad3ec876040518263ffffffff1660e01b81526004016105789190611603565b602060405180830381865afa158015610595573d6000803e3d6000fd5b505050506040513d601f19601f820116820180604052508101906105b99190611a4d565b6fffffffffffffffffffffffffffffffff16905060008060009054906101000a900473ffffffffffffffffffffffffffffffffffffffff1673ffffffffffffffffffffffffffffffffffffffff16638efb874f886040518263ffffffff1660e01b81526004016106299190611603565b602060405180830381865afa158015610646573d6000803e3d6000fd5b505050506040513d601f19601f8201168201806040525081019061066a91906119d8565b90503373ffffffffffffffffffffffffffffffffffffffff168573ffffffffffffffffffffffffffffffffffffffff16146106da576040517f08c379a00000000000000000000000000000000000000000000000000000000081526004016106d190611ad7565b60405180910390fd5b6000861161071d576040517f08c379a000000000000000000000000000000000000000000000000000000000815260040161071490611b43565b60405180910390fd5b6000600160008981526020019081526020016000205414610773576040517f08c379a000000000000000000000000000000000000000000000000000000000815260040161076a90611baf565b60405180910390fd5b60008054906101000a900473ffffffffffffffffffffffffffffffffffffffff1673ffffffffffffffffffffffffffffffffffffffff1663e985e9c533306040518363ffffffff1660e01b81526004016107ce929190611bcf565b602060405180830381865afa1580156107eb573d6000803e3d6000fd5b505050506040513d601f19601f8201168201806040525081019061080f9190611c30565b61084e576040517f08c379a000000000000000000000000000000000000000000000000000000000815260040161084590611ccf565b60405180910390fd5b85600160008981526020019081526020016000208190555060026040518060e001604052808981526020018881526020018681526020018581526020018481526020018381526020013373ffffffffffffffffffffffffffffffffffffffff168152509080600181540180825580915050600190039060005260206000209060070201600090919091909150600082015181600001556020820151816001015560408201518160020155606082015181600301556080820151816004015560a0820151816005015560c08201518160060160006101000a81548173ffffffffffffffffffffffffffffffffffffffff021916908373ffffffffffffffffffffffffffffffffffffffff160217905550505050505050505050565b60008060008060008060008054906101000a900473ffffffffffffffffffffffffffffffffffffffff1673ffffffffffffffffffffffffffffffffffffffff166381e1b7e1886040518263ffffffff1660e01b81526004016109ca9190611603565b602060405180830381865afa1580156109e7573d6000803e3d6000fd5b505050506040513d601f19601f82011682018060405250810190610a0b91906119d8565b905060008060009054906101000a900473ffffffffffffffffffffffffffffffffffffffff1673ffffffffffffffffffffffffffffffffffffffff16635bc548ea896040518263ffffffff1660e01b8152600401610a699190611603565b602060405180830381865afa158015610a86573d6000803e3d6000fd5b505050506040513d601f19601f82011682018060405250810190610aaa91906119d8565b905060008060009054906101000a900473ffffffffffffffffffffffffffffffffffffffff1673ffffffffffffffffffffffffffffffffffffffff1663f55ad3ec8a6040518263ffffffff1660e01b8152600401610b089190611603565b602060405180830381865afa158015610b25573d6000803e3d6000fd5b505050506040513d601f19601f82011682018060405250810190610b499190611a4d565b6fffffffffffffffffffffffffffffffff16905060008060009054906101000a900473ffffffffffffffffffffffffffffffffffffffff1673ffffffffffffffffffffffffffffffffffffffff16638efb874f8b6040518263ffffffff1660e01b8152600401610bb99190611603565b602060405180830381865afa158015610bd6573d6000803e3d6000fd5b505050506040513d601f19601f82011682018060405250810190610bfa91906119d8565b905060008060009054906101000a900473ffffffffffffffffffffffffffffffffffffffff1673ffffffffffffffffffffffffffffffffffffffff16636352211e8c6040518263ffffffff1660e01b8152600401610c589190611603565b602060405180830381865afa158015610c75573d6000803e3d6000fd5b505050506040513d601f19601f82011682018060405250810190610c999190611996565b9050848484848499509950995099509950505050505091939590929450565b60038181548110610cc857600080fd5b90600052602060002090600602016000915090508060000154908060010154908060020154908060030154908060040154908060050160009054906101000a900473ffffffffffffffffffffffffffffffffffffffff16905086565b60008060009054906101000a900473ffffffffffffffffffffffffffffffffffffffff1673ffffffffffffffffffffffffffffffffffffffff16636352211e836040518263ffffffff1660e01b8152600401610d809190611603565b602060405180830381865afa158015610d9d573d6000803e3d6000fd5b505050506040513d601f19601f82011682018060405250810190610dc19190611996565b90503373ffffffffffffffffffffffffffffffffffffffff168173ffffffffffffffffffffffffffffffffffffffff161415610e32576040517f08c379a0000000000000000000000000000000000000000000000000000000008152600401610e2990611d3b565b60405180910390fd5b6000600160008481526020019081526020016000205411610e88576040517f08c379a0000000000000000000000000000000000000000000000000000000008152600401610e7f90611da7565b60405180910390fd5b3460016000848152602001908152602001600020541115610ede576040517f08c379a0000000000000000000000000000000000000000000000000000000008152600401610ed590611e13565b60405180910390fd5b8073ffffffffffffffffffffffffffffffffffffffff166108fc349081150290604051600060405180830381858888f19350505050158015610f24573d6000803e3d6000fd5b5060008054906101000a900473ffffffffffffffffffffffffffffffffffffffff1673ffffffffffffffffffffffffffffffffffffffff166342842e0e8233856040518463ffffffff1660e01b8152600401610f8293929190611e33565b600060405180830381600087803b158015610f9c57600080fd5b505af1158015610fb0573d6000803e3d6000fd5b505050506000600160008481526020019081526020016000208190555060005b6002805490508110156111af5760006001600060028481548110610ff757610ff6611e6a565b5b906000526020600020906007020160000154815260200190815260200160002054141561119c57600260016002805490506110329190611ec8565b8154811061104357611042611e6a565b5b90600052602060002090600702016002828154811061106557611064611e6a565b5b90600052602060002090600702016000820154816000015560018201548160010155600282015481600201556003820154816003015560048201548160040155600582015481600501556006820160009054906101000a900473ffffffffffffffffffffffffffffffffffffffff168160060160006101000a81548173ffffffffffffffffffffffffffffffffffffffff021916908373ffffffffffffffffffffffffffffffffffffffff160217905550905050600280548061112b5761112a611efc565b5b6001900381819060005260206000209060070201600080820160009055600182016000905560028201600090556003820160009055600482016000905560058201600090556006820160006101000a81549073ffffffffffffffffffffffffffffffffffffffff0219169055505090555b80806111a790611f2b565b915050610fd0565b505050565b600060016000838152602001908152602001600020549050919050565b606060008060009054906101000a900473ffffffffffffffffffffffffffffffffffffffff1673ffffffffffffffffffffffffffffffffffffffff166370a08231336040518263ffffffff1660e01b815260040161122f9190611f74565b602060405180830381865afa15801561124c573d6000803e3d6000fd5b505050506040513d601f19601f8201168201806040525081019061127091906119d8565b9050600081116112b5576040517f08c379a00000000000000000000000000000000000000000000000000000000081526004016112ac90611fdb565b60405180910390fd5b60008167ffffffffffffffff8111156112d1576112d0611ffb565b5b60405190808252806020026020018201604052801561130a57816020015b6112f7611504565b8152602001906001900390816112ef5790505b50905060008060009054906101000a900473ffffffffffffffffffffffffffffffffffffffff1673ffffffffffffffffffffffffffffffffffffffff16630ff1b75e6040518163ffffffff1660e01b8152600401602060405180830381865afa15801561137b573d6000803e3d6000fd5b505050506040513d601f19601f8201168201806040525081019061139f91906119d8565b905060005b818110156114e25760008060009054906101000a900473ffffffffffffffffffffffffffffffffffffffff1673ffffffffffffffffffffffffffffffffffffffff16632f745c5933846040518363ffffffff1660e01b815260040161140a92919061202a565b602060405180830381865afa158015611427573d6000803e3d6000fd5b505050506040513d601f19601f8201168201806040525081019061144b91906119d8565b9050600080600080600061145e86610968565b945094509450945094506040518060c001604052808781526020018681526020018581526020018481526020018381526020018273ffffffffffffffffffffffffffffffffffffffff168152508988815181106114be576114bd611e6a565b5b602002602001018190525050505050505080806114da90611f2b565b9150506113a4565b5081935050505090565b60016020528060005260406000206000915090505481565b6040518060c001604052806000815260200160008152602001600081526020016000815260200160008152602001600073ffffffffffffffffffffffffffffffffffffffff1681525090565b600073ffffffffffffffffffffffffffffffffffffffff82169050919050565b6000819050919050565b600061159561159061158b84611550565b611570565b611550565b9050919050565b60006115a78261157a565b9050919050565b60006115b98261159c565b9050919050565b6115c9816115ae565b82525050565b60006020820190506115e460008301846115c0565b92915050565b6000819050919050565b6115fd816115ea565b82525050565b600060208201905061161860008301846115f4565b92915050565b600080fd5b61162c816115ea565b811461163757600080fd5b50565b60008135905061164981611623565b92915050565b6000602082840312156116655761166461161e565b5b60006116738482850161163a565b91505092915050565b600061168782611550565b9050919050565b6116978161167c565b82525050565b600060e0820190506116b2600083018a6115f4565b6116bf60208301896115f4565b6116cc60408301886115f4565b6116d960608301876115f4565b6116e660808301866115f4565b6116f360a08301856115f4565b61170060c083018461168e565b98975050505050505050565b600080604083850312156117235761172261161e565b5b60006117318582860161163a565b92505060206117428582860161163a565b9150509250929050565b600060a08201905061176160008301886115f4565b61176e60208301876115f4565b61177b60408301866115f4565b61178860608301856115f4565b611795608083018461168e565b9695505050505050565b600060c0820190506117b460008301896115f4565b6117c160208301886115f4565b6117ce60408301876115f4565b6117db60608301866115f4565b6117e860808301856115f4565b6117f560a083018461168e565b979650505050505050565b600081519050919050565b600082825260208201905092915050565b6000819050602082019050919050565b611835816115ea565b82525050565b6118448161167c565b82525050565b60c082016000820151611860600085018261182c565b506020820151611873602085018261182c565b506040820151611886604085018261182c565b506060820151611899606085018261182c565b5060808201516118ac608085018261182c565b5060a08201516118bf60a085018261183b565b50505050565b60006118d1838361184a565b60c08301905092915050565b6000602082019050919050565b60006118f582611800565b6118ff818561180b565b935061190a8361181c565b8060005b8381101561193b57815161192288826118c5565b975061192d836118dd565b92505060018101905061190e565b5085935050505092915050565b6000602082019050818103600083015261196281846118ea565b905092915050565b6119738161167c565b811461197e57600080fd5b50565b6000815190506119908161196a565b92915050565b6000602082840312156119ac576119ab61161e565b5b60006119ba84828501611981565b91505092915050565b6000815190506119d281611623565b92915050565b6000602082840312156119ee576119ed61161e565b5b60006119fc848285016119c3565b91505092915050565b60006fffffffffffffffffffffffffffffffff82169050919050565b611a2a81611a05565b8114611a3557600080fd5b50565b600081519050611a4781611a21565b92915050565b600060208284031215611a6357611a6261161e565b5b6000611a7184828501611a38565b91505092915050565b600082825260208201905092915050565b7f43616c6c6572206973206e6f7420746f6b656e206f776e65722e000000000000600082015250565b6000611ac1601a83611a7a565b9150611acc82611a8b565b602082019050919050565b60006020820190508181036000830152611af081611ab4565b9050919050565b7f5072696365206973207a65726f206f72206c6f7765722e000000000000000000600082015250565b6000611b2d601783611a7a565b9150611b3882611af7565b602082019050919050565b60006020820190508181036000830152611b5c81611b20565b9050919050565b7f5468697320746f6b656e20697320616c7265616479206f6e2073616c652e0000600082015250565b6000611b99601e83611a7a565b9150611ba482611b63565b602082019050919050565b60006020820190508181036000830152611bc881611b8c565b9050919050565b6000604082019050611be4600083018561168e565b611bf1602083018461168e565b9392505050565b60008115159050919050565b611c0d81611bf8565b8114611c1857600080fd5b50565b600081519050611c2a81611c04565b92915050565b600060208284031215611c4657611c4561161e565b5b6000611c5484828501611c1b565b91505092915050565b7f546f6b656e206f6e77657220646964206e6f7420617070726f766520746f6b6560008201527f6e2e000000000000000000000000000000000000000000000000000000000000602082015250565b6000611cb9602283611a7a565b9150611cc482611c5d565b604082019050919050565b60006020820190508181036000830152611ce881611cac565b9050919050565b7f43616c6c657220697320746f6b656e206f776e65722e00000000000000000000600082015250565b6000611d25601683611a7a565b9150611d3082611cef565b602082019050919050565b60006020820190508181036000830152611d5481611d18565b9050919050565b7f5468697320746f6b656e206e6f742073616c652e000000000000000000000000600082015250565b6000611d91601483611a7a565b9150611d9c82611d5b565b602082019050919050565b60006020820190508181036000830152611dc081611d84565b9050919050565b7f43616c6c65722073656e74206c6f776572207468616e2070726963652e000000600082015250565b6000611dfd601d83611a7a565b9150611e0882611dc7565b602082019050919050565b60006020820190508181036000830152611e2c81611df0565b9050919050565b6000606082019050611e48600083018661168e565b611e55602083018561168e565b611e6260408301846115f4565b949350505050565b7f4e487b7100000000000000000000000000000000000000000000000000000000600052603260045260246000fd5b7f4e487b7100000000000000000000000000000000000000000000000000000000600052601160045260246000fd5b6000611ed3826115ea565b9150611ede836115ea565b925082821015611ef157611ef0611e99565b5b828203905092915050565b7f4e487b7100000000000000000000000000000000000000000000000000000000600052603160045260246000fd5b6000611f36826115ea565b91507fffffffffffffffffffffffffffffffffffffffffffffffffffffffffffffffff821415611f6957611f68611e99565b5b600182019050919050565b6000602082019050611f89600083018461168e565b92915050565b7f596f7520646964206e6f74206861766520746f6b656e2e000000000000000000600082015250565b6000611fc5601783611a7a565b9150611fd082611f8f565b602082019050919050565b60006020820190508181036000830152611ff481611fb8565b9050919050565b7f4e487b7100000000000000000000000000000000000000000000000000000000600052604160045260246000fd5b600060408201905061203f600083018561168e565b61204c60208301846115f4565b939250505056fea264697066735822122013116d619a82c834bfab15ecd5176ca355b455c9aaa52512919cd6308819c8f264736f6c634300080c0033",
			"opcodes": "PUSH1 0x80 PUSH1 0x40 MSTORE CALLVALUE DUP1 ISZERO PUSH3 0x11 JUMPI PUSH1 0x0 DUP1 REVERT JUMPDEST POP PUSH1 0x40 MLOAD PUSH3 0x21B3 CODESIZE SUB DUP1 PUSH3 0x21B3 DUP4 CODECOPY DUP2 DUP2 ADD PUSH1 0x40 MSTORE DUP2 ADD SWAP1 PUSH3 0x37 SWAP2 SWAP1 PUSH3 0xE8 JUMP JUMPDEST DUP1 PUSH1 0x0 DUP1 PUSH2 0x100 EXP DUP2 SLOAD DUP2 PUSH20 0xFFFFFFFFFFFFFFFFFFFFFFFFFFFFFFFFFFFFFFFF MUL NOT AND SWAP1 DUP4 PUSH20 0xFFFFFFFFFFFFFFFFFFFFFFFFFFFFFFFFFFFFFFFF AND MUL OR SWAP1 SSTORE POP POP PUSH3 0x11A JUMP JUMPDEST PUSH1 0x0 DUP1 REVERT JUMPDEST PUSH1 0x0 PUSH20 0xFFFFFFFFFFFFFFFFFFFFFFFFFFFFFFFFFFFFFFFF DUP3 AND SWAP1 POP SWAP2 SWAP1 POP JUMP JUMPDEST PUSH1 0x0 PUSH3 0xB0 DUP3 PUSH3 0x83 JUMP JUMPDEST SWAP1 POP SWAP2 SWAP1 POP JUMP JUMPDEST PUSH3 0xC2 DUP2 PUSH3 0xA3 JUMP JUMPDEST DUP2 EQ PUSH3 0xCE JUMPI PUSH1 0x0 DUP1 REVERT JUMPDEST POP JUMP JUMPDEST PUSH1 0x0 DUP2 MLOAD SWAP1 POP PUSH3 0xE2 DUP2 PUSH3 0xB7 JUMP JUMPDEST SWAP3 SWAP2 POP POP JUMP JUMPDEST PUSH1 0x0 PUSH1 0x20 DUP3 DUP5 SUB SLT ISZERO PUSH3 0x101 JUMPI PUSH3 0x100 PUSH3 0x7E JUMP JUMPDEST JUMPDEST PUSH1 0x0 PUSH3 0x111 DUP5 DUP3 DUP6 ADD PUSH3 0xD1 JUMP JUMPDEST SWAP2 POP POP SWAP3 SWAP2 POP POP JUMP JUMPDEST PUSH2 0x2089 DUP1 PUSH3 0x12A PUSH1 0x0 CODECOPY PUSH1 0x0 RETURN INVALID PUSH1 0x80 PUSH1 0x40 MSTORE PUSH1 0x4 CALLDATASIZE LT PUSH2 0x91 JUMPI PUSH1 0x0 CALLDATALOAD PUSH1 0xE0 SHR DUP1 PUSH4 0xB4B5B48F GT PUSH2 0x59 JUMPI DUP1 PUSH4 0xB4B5B48F EQ PUSH2 0x199 JUMPI DUP1 PUSH4 0xC2DB2C42 EQ PUSH2 0x1DB JUMPI DUP1 PUSH4 0xC457FB37 EQ PUSH2 0x1F7 JUMPI DUP1 PUSH4 0xD16AAD61 EQ PUSH2 0x234 JUMPI DUP1 PUSH4 0xE5AFE3E6 EQ PUSH2 0x25F JUMPI PUSH2 0x91 JUMP JUMPDEST DUP1 PUSH4 0x148507B8 EQ PUSH2 0x96 JUMPI DUP1 PUSH4 0x42F23B9E EQ PUSH2 0xC1 JUMPI DUP1 PUSH4 0x49F0F84A EQ PUSH2 0xEC JUMPI DUP1 PUSH4 0x6A4C3ADF EQ PUSH2 0x12F JUMPI DUP1 PUSH4 0x8C7A63AE EQ PUSH2 0x158 JUMPI JUMPDEST PUSH1 0x0 DUP1 REVERT JUMPDEST CALLVALUE DUP1 ISZERO PUSH2 0xA2 JUMPI PUSH1 0x0 DUP1 REVERT JUMPDEST POP PUSH2 0xAB PUSH2 0x29C JUMP JUMPDEST PUSH1 0x40 MLOAD PUSH2 0xB8 SWAP2 SWAP1 PUSH2 0x15CF JUMP JUMPDEST PUSH1 0x40 MLOAD DUP1 SWAP2 SUB SWAP1 RETURN JUMPDEST CALLVALUE DUP1 ISZERO PUSH2 0xCD JUMPI PUSH1 0x0 DUP1 REVERT JUMPDEST POP PUSH2 0xD6 PUSH2 0x2C0 JUMP JUMPDEST PUSH1 0x40 MLOAD PUSH2 0xE3 SWAP2 SWAP1 PUSH2 0x1603 JUMP JUMPDEST PUSH1 0x40 MLOAD DUP1 SWAP2 SUB SWAP1 RETURN JUMPDEST CALLVALUE DUP1 ISZERO PUSH2 0xF8 JUMPI PUSH1 0x0 DUP1 REVERT JUMPDEST POP PUSH2 0x113 PUSH1 0x4 DUP1 CALLDATASIZE SUB DUP2 ADD SWAP1 PUSH2 0x10E SWAP2 SWAP1 PUSH2 0x164F JUMP JUMPDEST PUSH2 0x2CD JUMP JUMPDEST PUSH1 0x40 MLOAD PUSH2 0x126 SWAP8 SWAP7 SWAP6 SWAP5 SWAP4 SWAP3 SWAP2 SWAP1 PUSH2 0x169D JUMP JUMPDEST PUSH1 0x40 MLOAD DUP1 SWAP2 SUB SWAP1 RETURN JUMPDEST CALLVALUE DUP1 ISZERO PUSH2 0x13B JUMPI PUSH1 0x0 DUP1 REVERT JUMPDEST POP PUSH2 0x156 PUSH1 0x4 DUP1 CALLDATASIZE SUB DUP2 ADD SWAP1 PUSH2 0x151 SWAP2 SWAP1 PUSH2 0x170C JUMP JUMPDEST PUSH2 0x33F JUMP JUMPDEST STOP JUMPDEST CALLVALUE DUP1 ISZERO PUSH2 0x164 JUMPI PUSH1 0x0 DUP1 REVERT JUMPDEST POP PUSH2 0x17F PUSH1 0x4 DUP1 CALLDATASIZE SUB DUP2 ADD SWAP1 PUSH2 0x17A SWAP2 SWAP1 PUSH2 0x164F JUMP JUMPDEST PUSH2 0x968 JUMP JUMPDEST PUSH1 0x40 MLOAD PUSH2 0x190 SWAP6 SWAP5 SWAP4 SWAP3 SWAP2 SWAP1 PUSH2 0x174C JUMP JUMPDEST PUSH1 0x40 MLOAD DUP1 SWAP2 SUB SWAP1 RETURN JUMPDEST CALLVALUE DUP1 ISZERO PUSH2 0x1A5 JUMPI PUSH1 0x0 DUP1 REVERT JUMPDEST POP PUSH2 0x1C0 PUSH1 0x4 DUP1 CALLDATASIZE SUB DUP2 ADD SWAP1 PUSH2 0x1BB SWAP2 SWAP1 PUSH2 0x164F JUMP JUMPDEST PUSH2 0xCB8 JUMP JUMPDEST PUSH1 0x40 MLOAD PUSH2 0x1D2 SWAP7 SWAP6 SWAP5 SWAP4 SWAP3 SWAP2 SWAP1 PUSH2 0x179F JUMP JUMPDEST PUSH1 0x40 MLOAD DUP1 SWAP2 SUB SWAP1 RETURN JUMPDEST PUSH2 0x1F5 PUSH1 0x4 DUP1 CALLDATASIZE SUB DUP2 ADD SWAP1 PUSH2 0x1F0 SWAP2 SWAP1 PUSH2 0x164F JUMP JUMPDEST PUSH2 0xD24 JUMP JUMPDEST STOP JUMPDEST CALLVALUE DUP1 ISZERO PUSH2 0x203 JUMPI PUSH1 0x0 DUP1 REVERT JUMPDEST POP PUSH2 0x21E PUSH1 0x4 DUP1 CALLDATASIZE SUB DUP2 ADD SWAP1 PUSH2 0x219 SWAP2 SWAP1 PUSH2 0x164F JUMP JUMPDEST PUSH2 0x11B4 JUMP JUMPDEST PUSH1 0x40 MLOAD PUSH2 0x22B SWAP2 SWAP1 PUSH2 0x1603 JUMP JUMPDEST PUSH1 0x40 MLOAD DUP1 SWAP2 SUB SWAP1 RETURN JUMPDEST CALLVALUE DUP1 ISZERO PUSH2 0x240 JUMPI PUSH1 0x0 DUP1 REVERT JUMPDEST POP PUSH2 0x249 PUSH2 0x11D1 JUMP JUMPDEST PUSH1 0x40 MLOAD PUSH2 0x256 SWAP2 SWAP1 PUSH2 0x1948 JUMP JUMPDEST PUSH1 0x40 MLOAD DUP1 SWAP2 SUB SWAP1 RETURN JUMPDEST CALLVALUE DUP1 ISZERO PUSH2 0x26B JUMPI PUSH1 0x0 DUP1 REVERT JUMPDEST POP PUSH2 0x286 PUSH1 0x4 DUP1 CALLDATASIZE SUB DUP2 ADD SWAP1 PUSH2 0x281 SWAP2 SWAP1 PUSH2 0x164F JUMP JUMPDEST PUSH2 0x14EC JUMP JUMPDEST PUSH1 0x40 MLOAD PUSH2 0x293 SWAP2 SWAP1 PUSH2 0x1603 JUMP JUMPDEST PUSH1 0x40 MLOAD DUP1 SWAP2 SUB SWAP1 RETURN JUMPDEST PUSH1 0x0 DUP1 SLOAD SWAP1 PUSH2 0x100 EXP SWAP1 DIV PUSH20 0xFFFFFFFFFFFFFFFFFFFFFFFFFFFFFFFFFFFFFFFF AND DUP2 JUMP JUMPDEST PUSH1 0x0 PUSH1 0x2 DUP1 SLOAD SWAP1 POP SWAP1 POP SWAP1 JUMP JUMPDEST PUSH1 0x2 DUP2 DUP2 SLOAD DUP2 LT PUSH2 0x2DD JUMPI PUSH1 0x0 DUP1 REVERT JUMPDEST SWAP1 PUSH1 0x0 MSTORE PUSH1 0x20 PUSH1 0x0 KECCAK256 SWAP1 PUSH1 0x7 MUL ADD PUSH1 0x0 SWAP2 POP SWAP1 POP DUP1 PUSH1 0x0 ADD SLOAD SWAP1 DUP1 PUSH1 0x1 ADD SLOAD SWAP1 DUP1 PUSH1 0x2 ADD SLOAD SWAP1 DUP1 PUSH1 0x3 ADD SLOAD SWAP1 DUP1 PUSH1 0x4 ADD SLOAD SWAP1 DUP1 PUSH1 0x5 ADD SLOAD SWAP1 DUP1 PUSH1 0x6 ADD PUSH1 0x0 SWAP1 SLOAD SWAP1 PUSH2 0x100 EXP SWAP1 DIV PUSH20 0xFFFFFFFFFFFFFFFFFFFFFFFFFFFFFFFFFFFFFFFF AND SWAP1 POP DUP8 JUMP JUMPDEST PUSH1 0x0 DUP1 PUSH1 0x0 SWAP1 SLOAD SWAP1 PUSH2 0x100 EXP SWAP1 DIV PUSH20 0xFFFFFFFFFFFFFFFFFFFFFFFFFFFFFFFFFFFFFFFF AND PUSH20 0xFFFFFFFFFFFFFFFFFFFFFFFFFFFFFFFFFFFFFFFF AND PUSH4 0x6352211E DUP5 PUSH1 0x40 MLOAD DUP3 PUSH4 0xFFFFFFFF AND PUSH1 0xE0 SHL DUP2 MSTORE PUSH1 0x4 ADD PUSH2 0x39B SWAP2 SWAP1 PUSH2 0x1603 JUMP JUMPDEST PUSH1 0x20 PUSH1 0x40 MLOAD DUP1 DUP4 SUB DUP2 DUP7 GAS STATICCALL ISZERO DUP1 ISZERO PUSH2 0x3B8 JUMPI RETURNDATASIZE PUSH1 0x0 DUP1 RETURNDATACOPY RETURNDATASIZE PUSH1 0x0 REVERT JUMPDEST POP POP POP POP PUSH1 0x40 MLOAD RETURNDATASIZE PUSH1 0x1F NOT PUSH1 0x1F DUP3 ADD AND DUP3 ADD DUP1 PUSH1 0x40 MSTORE POP DUP2 ADD SWAP1 PUSH2 0x3DC SWAP2 SWAP1 PUSH2 0x1996 JUMP JUMPDEST SWAP1 POP PUSH1 0x0 DUP1 PUSH1 0x0 SWAP1 SLOAD SWAP1 PUSH2 0x100 EXP SWAP1 DIV PUSH20 0xFFFFFFFFFFFFFFFFFFFFFFFFFFFFFFFFFFFFFFFF AND PUSH20 0xFFFFFFFFFFFFFFFFFFFFFFFFFFFFFFFFFFFFFFFF AND PUSH4 0x81E1B7E1 DUP6 PUSH1 0x40 MLOAD DUP3 PUSH4 0xFFFFFFFF AND PUSH1 0xE0 SHL DUP2 MSTORE PUSH1 0x4 ADD PUSH2 0x43A SWAP2 SWAP1 PUSH2 0x1603 JUMP JUMPDEST PUSH1 0x20 PUSH1 0x40 MLOAD DUP1 DUP4 SUB DUP2 DUP7 GAS STATICCALL ISZERO DUP1 ISZERO PUSH2 0x457 JUMPI RETURNDATASIZE PUSH1 0x0 DUP1 RETURNDATACOPY RETURNDATASIZE PUSH1 0x0 REVERT JUMPDEST POP POP POP POP PUSH1 0x40 MLOAD RETURNDATASIZE PUSH1 0x1F NOT PUSH1 0x1F DUP3 ADD AND DUP3 ADD DUP1 PUSH1 0x40 MSTORE POP DUP2 ADD SWAP1 PUSH2 0x47B SWAP2 SWAP1 PUSH2 0x19D8 JUMP JUMPDEST SWAP1 POP PUSH1 0x0 DUP1 PUSH1 0x0 SWAP1 SLOAD SWAP1 PUSH2 0x100 EXP SWAP1 DIV PUSH20 0xFFFFFFFFFFFFFFFFFFFFFFFFFFFFFFFFFFFFFFFF AND PUSH20 0xFFFFFFFFFFFFFFFFFFFFFFFFFFFFFFFFFFFFFFFF AND PUSH4 0x5BC548EA DUP7 PUSH1 0x40 MLOAD DUP3 PUSH4 0xFFFFFFFF AND PUSH1 0xE0 SHL DUP2 MSTORE PUSH1 0x4 ADD PUSH2 0x4D9 SWAP2 SWAP1 PUSH2 0x1603 JUMP JUMPDEST PUSH1 0x20 PUSH1 0x40 MLOAD DUP1 DUP4 SUB DUP2 DUP7 GAS STATICCALL ISZERO DUP1 ISZERO PUSH2 0x4F6 JUMPI RETURNDATASIZE PUSH1 0x0 DUP1 RETURNDATACOPY RETURNDATASIZE PUSH1 0x0 REVERT JUMPDEST POP POP POP POP PUSH1 0x40 MLOAD RETURNDATASIZE PUSH1 0x1F NOT PUSH1 0x1F DUP3 ADD AND DUP3 ADD DUP1 PUSH1 0x40 MSTORE POP DUP2 ADD SWAP1 PUSH2 0x51A SWAP2 SWAP1 PUSH2 0x19D8 JUMP JUMPDEST SWAP1 POP PUSH1 0x0 DUP1 PUSH1 0x0 SWAP1 SLOAD SWAP1 PUSH2 0x100 EXP SWAP1 DIV PUSH20 0xFFFFFFFFFFFFFFFFFFFFFFFFFFFFFFFFFFFFFFFF AND PUSH20 0xFFFFFFFFFFFFFFFFFFFFFFFFFFFFFFFFFFFFFFFF AND PUSH4 0xF55AD3EC DUP8 PUSH1 0x40 MLOAD DUP3 PUSH4 0xFFFFFFFF AND PUSH1 0xE0 SHL DUP2 MSTORE PUSH1 0x4 ADD PUSH2 0x578 SWAP2 SWAP1 PUSH2 0x1603 JUMP JUMPDEST PUSH1 0x20 PUSH1 0x40 MLOAD DUP1 DUP4 SUB DUP2 DUP7 GAS STATICCALL ISZERO DUP1 ISZERO PUSH2 0x595 JUMPI RETURNDATASIZE PUSH1 0x0 DUP1 RETURNDATACOPY RETURNDATASIZE PUSH1 0x0 REVERT JUMPDEST POP POP POP POP PUSH1 0x40 MLOAD RETURNDATASIZE PUSH1 0x1F NOT PUSH1 0x1F DUP3 ADD AND DUP3 ADD DUP1 PUSH1 0x40 MSTORE POP DUP2 ADD SWAP1 PUSH2 0x5B9 SWAP2 SWAP1 PUSH2 0x1A4D JUMP JUMPDEST PUSH16 0xFFFFFFFFFFFFFFFFFFFFFFFFFFFFFFFF AND SWAP1 POP PUSH1 0x0 DUP1 PUSH1 0x0 SWAP1 SLOAD SWAP1 PUSH2 0x100 EXP SWAP1 DIV PUSH20 0xFFFFFFFFFFFFFFFFFFFFFFFFFFFFFFFFFFFFFFFF AND PUSH20 0xFFFFFFFFFFFFFFFFFFFFFFFFFFFFFFFFFFFFFFFF AND PUSH4 0x8EFB874F DUP9 PUSH1 0x40 MLOAD DUP3 PUSH4 0xFFFFFFFF AND PUSH1 0xE0 SHL DUP2 MSTORE PUSH1 0x4 ADD PUSH2 0x629 SWAP2 SWAP1 PUSH2 0x1603 JUMP JUMPDEST PUSH1 0x20 PUSH1 0x40 MLOAD DUP1 DUP4 SUB DUP2 DUP7 GAS STATICCALL ISZERO DUP1 ISZERO PUSH2 0x646 JUMPI RETURNDATASIZE PUSH1 0x0 DUP1 RETURNDATACOPY RETURNDATASIZE PUSH1 0x0 REVERT JUMPDEST POP POP POP POP PUSH1 0x40 MLOAD RETURNDATASIZE PUSH1 0x1F NOT PUSH1 0x1F DUP3 ADD AND DUP3 ADD DUP1 PUSH1 0x40 MSTORE POP DUP2 ADD SWAP1 PUSH2 0x66A SWAP2 SWAP1 PUSH2 0x19D8 JUMP JUMPDEST SWAP1 POP CALLER PUSH20 0xFFFFFFFFFFFFFFFFFFFFFFFFFFFFFFFFFFFFFFFF AND DUP6 PUSH20 0xFFFFFFFFFFFFFFFFFFFFFFFFFFFFFFFFFFFFFFFF AND EQ PUSH2 0x6DA JUMPI PUSH1 0x40 MLOAD PUSH32 0x8C379A000000000000000000000000000000000000000000000000000000000 DUP2 MSTORE PUSH1 0x4 ADD PUSH2 0x6D1 SWAP1 PUSH2 0x1AD7 JUMP JUMPDEST PUSH1 0x40 MLOAD DUP1 SWAP2 SUB SWAP1 REVERT JUMPDEST PUSH1 0x0 DUP7 GT PUSH2 0x71D JUMPI PUSH1 0x40 MLOAD PUSH32 0x8C379A000000000000000000000000000000000000000000000000000000000 DUP2 MSTORE PUSH1 0x4 ADD PUSH2 0x714 SWAP1 PUSH2 0x1B43 JUMP JUMPDEST PUSH1 0x40 MLOAD DUP1 SWAP2 SUB SWAP1 REVERT JUMPDEST PUSH1 0x0 PUSH1 0x1 PUSH1 0x0 DUP10 DUP2 MSTORE PUSH1 0x20 ADD SWAP1 DUP2 MSTORE PUSH1 0x20 ADD PUSH1 0x0 KECCAK256 SLOAD EQ PUSH2 0x773 JUMPI PUSH1 0x40 MLOAD PUSH32 0x8C379A000000000000000000000000000000000000000000000000000000000 DUP2 MSTORE PUSH1 0x4 ADD PUSH2 0x76A SWAP1 PUSH2 0x1BAF JUMP JUMPDEST PUSH1 0x40 MLOAD DUP1 SWAP2 SUB SWAP1 REVERT JUMPDEST PUSH1 0x0 DUP1 SLOAD SWAP1 PUSH2 0x100 EXP SWAP1 DIV PUSH20 0xFFFFFFFFFFFFFFFFFFFFFFFFFFFFFFFFFFFFFFFF AND PUSH20 0xFFFFFFFFFFFFFFFFFFFFFFFFFFFFFFFFFFFFFFFF AND PUSH4 0xE985E9C5 CALLER ADDRESS PUSH1 0x40 MLOAD DUP4 PUSH4 0xFFFFFFFF AND PUSH1 0xE0 SHL DUP2 MSTORE PUSH1 0x4 ADD PUSH2 0x7CE SWAP3 SWAP2 SWAP1 PUSH2 0x1BCF JUMP JUMPDEST PUSH1 0x20 PUSH1 0x40 MLOAD DUP1 DUP4 SUB DUP2 DUP7 GAS STATICCALL ISZERO DUP1 ISZERO PUSH2 0x7EB JUMPI RETURNDATASIZE PUSH1 0x0 DUP1 RETURNDATACOPY RETURNDATASIZE PUSH1 0x0 REVERT JUMPDEST POP POP POP POP PUSH1 0x40 MLOAD RETURNDATASIZE PUSH1 0x1F NOT PUSH1 0x1F DUP3 ADD AND DUP3 ADD DUP1 PUSH1 0x40 MSTORE POP DUP2 ADD SWAP1 PUSH2 0x80F SWAP2 SWAP1 PUSH2 0x1C30 JUMP JUMPDEST PUSH2 0x84E JUMPI PUSH1 0x40 MLOAD PUSH32 0x8C379A000000000000000000000000000000000000000000000000000000000 DUP2 MSTORE PUSH1 0x4 ADD PUSH2 0x845 SWAP1 PUSH2 0x1CCF JUMP JUMPDEST PUSH1 0x40 MLOAD DUP1 SWAP2 SUB SWAP1 REVERT JUMPDEST DUP6 PUSH1 0x1 PUSH1 0x0 DUP10 DUP2 MSTORE PUSH1 0x20 ADD SWAP1 DUP2 MSTORE PUSH1 0x20 ADD PUSH1 0x0 KECCAK256 DUP2 SWAP1 SSTORE POP PUSH1 0x2 PUSH1 0x40 MLOAD DUP1 PUSH1 0xE0 ADD PUSH1 0x40 MSTORE DUP1 DUP10 DUP2 MSTORE PUSH1 0x20 ADD DUP9 DUP2 MSTORE PUSH1 0x20 ADD DUP7 DUP2 MSTORE PUSH1 0x20 ADD DUP6 DUP2 MSTORE PUSH1 0x20 ADD DUP5 DUP2 MSTORE PUSH1 0x20 ADD DUP4 DUP2 MSTORE PUSH1 0x20 ADD CALLER PUSH20 0xFFFFFFFFFFFFFFFFFFFFFFFFFFFFFFFFFFFFFFFF AND DUP2 MSTORE POP SWAP1 DUP1 PUSH1 0x1 DUP2 SLOAD ADD DUP1 DUP3 SSTORE DUP1 SWAP2 POP POP PUSH1 0x1 SWAP1 SUB SWAP1 PUSH1 0x0 MSTORE PUSH1 0x20 PUSH1 0x0 KECCAK256 SWAP1 PUSH1 0x7 MUL ADD PUSH1 0x0 SWAP1 SWAP2 SWAP1 SWAP2 SWAP1 SWAP2 POP PUSH1 0x0 DUP3 ADD MLOAD DUP2 PUSH1 0x0 ADD SSTORE PUSH1 0x20 DUP3 ADD MLOAD DUP2 PUSH1 0x1 ADD SSTORE PUSH1 0x40 DUP3 ADD MLOAD DUP2 PUSH1 0x2 ADD SSTORE PUSH1 0x60 DUP3 ADD MLOAD DUP2 PUSH1 0x3 ADD SSTORE PUSH1 0x80 DUP3 ADD MLOAD DUP2 PUSH1 0x4 ADD SSTORE PUSH1 0xA0 DUP3 ADD MLOAD DUP2 PUSH1 0x5 ADD SSTORE PUSH1 0xC0 DUP3 ADD MLOAD DUP2 PUSH1 0x6 ADD PUSH1 0x0 PUSH2 0x100 EXP DUP2 SLOAD DUP2 PUSH20 0xFFFFFFFFFFFFFFFFFFFFFFFFFFFFFFFFFFFFFFFF MUL NOT AND SWAP1 DUP4 PUSH20 0xFFFFFFFFFFFFFFFFFFFFFFFFFFFFFFFFFFFFFFFF AND MUL OR SWAP1 SSTORE POP POP POP POP POP POP POP POP POP POP JUMP JUMPDEST PUSH1 0x0 DUP1 PUSH1 0x0 DUP1 PUSH1 0x0 DUP1 PUSH1 0x0 DUP1 SLOAD SWAP1 PUSH2 0x100 EXP SWAP1 DIV PUSH20 0xFFFFFFFFFFFFFFFFFFFFFFFFFFFFFFFFFFFFFFFF AND PUSH20 0xFFFFFFFFFFFFFFFFFFFFFFFFFFFFFFFFFFFFFFFF AND PUSH4 0x81E1B7E1 DUP9 PUSH1 0x40 MLOAD DUP3 PUSH4 0xFFFFFFFF AND PUSH1 0xE0 SHL DUP2 MSTORE PUSH1 0x4 ADD PUSH2 0x9CA SWAP2 SWAP1 PUSH2 0x1603 JUMP JUMPDEST PUSH1 0x20 PUSH1 0x40 MLOAD DUP1 DUP4 SUB DUP2 DUP7 GAS STATICCALL ISZERO DUP1 ISZERO PUSH2 0x9E7 JUMPI RETURNDATASIZE PUSH1 0x0 DUP1 RETURNDATACOPY RETURNDATASIZE PUSH1 0x0 REVERT JUMPDEST POP POP POP POP PUSH1 0x40 MLOAD RETURNDATASIZE PUSH1 0x1F NOT PUSH1 0x1F DUP3 ADD AND DUP3 ADD DUP1 PUSH1 0x40 MSTORE POP DUP2 ADD SWAP1 PUSH2 0xA0B SWAP2 SWAP1 PUSH2 0x19D8 JUMP JUMPDEST SWAP1 POP PUSH1 0x0 DUP1 PUSH1 0x0 SWAP1 SLOAD SWAP1 PUSH2 0x100 EXP SWAP1 DIV PUSH20 0xFFFFFFFFFFFFFFFFFFFFFFFFFFFFFFFFFFFFFFFF AND PUSH20 0xFFFFFFFFFFFFFFFFFFFFFFFFFFFFFFFFFFFFFFFF AND PUSH4 0x5BC548EA DUP10 PUSH1 0x40 MLOAD DUP3 PUSH4 0xFFFFFFFF AND PUSH1 0xE0 SHL DUP2 MSTORE PUSH1 0x4 ADD PUSH2 0xA69 SWAP2 SWAP1 PUSH2 0x1603 JUMP JUMPDEST PUSH1 0x20 PUSH1 0x40 MLOAD DUP1 DUP4 SUB DUP2 DUP7 GAS STATICCALL ISZERO DUP1 ISZERO PUSH2 0xA86 JUMPI RETURNDATASIZE PUSH1 0x0 DUP1 RETURNDATACOPY RETURNDATASIZE PUSH1 0x0 REVERT JUMPDEST POP POP POP POP PUSH1 0x40 MLOAD RETURNDATASIZE PUSH1 0x1F NOT PUSH1 0x1F DUP3 ADD AND DUP3 ADD DUP1 PUSH1 0x40 MSTORE POP DUP2 ADD SWAP1 PUSH2 0xAAA SWAP2 SWAP1 PUSH2 0x19D8 JUMP JUMPDEST SWAP1 POP PUSH1 0x0 DUP1 PUSH1 0x0 SWAP1 SLOAD SWAP1 PUSH2 0x100 EXP SWAP1 DIV PUSH20 0xFFFFFFFFFFFFFFFFFFFFFFFFFFFFFFFFFFFFFFFF AND PUSH20 0xFFFFFFFFFFFFFFFFFFFFFFFFFFFFFFFFFFFFFFFF AND PUSH4 0xF55AD3EC DUP11 PUSH1 0x40 MLOAD DUP3 PUSH4 0xFFFFFFFF AND PUSH1 0xE0 SHL DUP2 MSTORE PUSH1 0x4 ADD PUSH2 0xB08 SWAP2 SWAP1 PUSH2 0x1603 JUMP JUMPDEST PUSH1 0x20 PUSH1 0x40 MLOAD DUP1 DUP4 SUB DUP2 DUP7 GAS STATICCALL ISZERO DUP1 ISZERO PUSH2 0xB25 JUMPI RETURNDATASIZE PUSH1 0x0 DUP1 RETURNDATACOPY RETURNDATASIZE PUSH1 0x0 REVERT JUMPDEST POP POP POP POP PUSH1 0x40 MLOAD RETURNDATASIZE PUSH1 0x1F NOT PUSH1 0x1F DUP3 ADD AND DUP3 ADD DUP1 PUSH1 0x40 MSTORE POP DUP2 ADD SWAP1 PUSH2 0xB49 SWAP2 SWAP1 PUSH2 0x1A4D JUMP JUMPDEST PUSH16 0xFFFFFFFFFFFFFFFFFFFFFFFFFFFFFFFF AND SWAP1 POP PUSH1 0x0 DUP1 PUSH1 0x0 SWAP1 SLOAD SWAP1 PUSH2 0x100 EXP SWAP1 DIV PUSH20 0xFFFFFFFFFFFFFFFFFFFFFFFFFFFFFFFFFFFFFFFF AND PUSH20 0xFFFFFFFFFFFFFFFFFFFFFFFFFFFFFFFFFFFFFFFF AND PUSH4 0x8EFB874F DUP12 PUSH1 0x40 MLOAD DUP3 PUSH4 0xFFFFFFFF AND PUSH1 0xE0 SHL DUP2 MSTORE PUSH1 0x4 ADD PUSH2 0xBB9 SWAP2 SWAP1 PUSH2 0x1603 JUMP JUMPDEST PUSH1 0x20 PUSH1 0x40 MLOAD DUP1 DUP4 SUB DUP2 DUP7 GAS STATICCALL ISZERO DUP1 ISZERO PUSH2 0xBD6 JUMPI RETURNDATASIZE PUSH1 0x0 DUP1 RETURNDATACOPY RETURNDATASIZE PUSH1 0x0 REVERT JUMPDEST POP POP POP POP PUSH1 0x40 MLOAD RETURNDATASIZE PUSH1 0x1F NOT PUSH1 0x1F DUP3 ADD AND DUP3 ADD DUP1 PUSH1 0x40 MSTORE POP DUP2 ADD SWAP1 PUSH2 0xBFA SWAP2 SWAP1 PUSH2 0x19D8 JUMP JUMPDEST SWAP1 POP PUSH1 0x0 DUP1 PUSH1 0x0 SWAP1 SLOAD SWAP1 PUSH2 0x100 EXP SWAP1 DIV PUSH20 0xFFFFFFFFFFFFFFFFFFFFFFFFFFFFFFFFFFFFFFFF AND PUSH20 0xFFFFFFFFFFFFFFFFFFFFFFFFFFFFFFFFFFFFFFFF AND PUSH4 0x6352211E DUP13 PUSH1 0x40 MLOAD DUP3 PUSH4 0xFFFFFFFF AND PUSH1 0xE0 SHL DUP2 MSTORE PUSH1 0x4 ADD PUSH2 0xC58 SWAP2 SWAP1 PUSH2 0x1603 JUMP JUMPDEST PUSH1 0x20 PUSH1 0x40 MLOAD DUP1 DUP4 SUB DUP2 DUP7 GAS STATICCALL ISZERO DUP1 ISZERO PUSH2 0xC75 JUMPI RETURNDATASIZE PUSH1 0x0 DUP1 RETURNDATACOPY RETURNDATASIZE PUSH1 0x0 REVERT JUMPDEST POP POP POP POP PUSH1 0x40 MLOAD RETURNDATASIZE PUSH1 0x1F NOT PUSH1 0x1F DUP3 ADD AND DUP3 ADD DUP1 PUSH1 0x40 MSTORE POP DUP2 ADD SWAP1 PUSH2 0xC99 SWAP2 SWAP1 PUSH2 0x1996 JUMP JUMPDEST SWAP1 POP DUP5 DUP5 DUP5 DUP5 DUP5 SWAP10 POP SWAP10 POP SWAP10 POP SWAP10 POP SWAP10 POP POP POP POP POP POP SWAP2 SWAP4 SWAP6 SWAP1 SWAP3 SWAP5 POP JUMP JUMPDEST PUSH1 0x3 DUP2 DUP2 SLOAD DUP2 LT PUSH2 0xCC8 JUMPI PUSH1 0x0 DUP1 REVERT JUMPDEST SWAP1 PUSH1 0x0 MSTORE PUSH1 0x20 PUSH1 0x0 KECCAK256 SWAP1 PUSH1 0x6 MUL ADD PUSH1 0x0 SWAP2 POP SWAP1 POP DUP1 PUSH1 0x0 ADD SLOAD SWAP1 DUP1 PUSH1 0x1 ADD SLOAD SWAP1 DUP1 PUSH1 0x2 ADD SLOAD SWAP1 DUP1 PUSH1 0x3 ADD SLOAD SWAP1 DUP1 PUSH1 0x4 ADD SLOAD SWAP1 DUP1 PUSH1 0x5 ADD PUSH1 0x0 SWAP1 SLOAD SWAP1 PUSH2 0x100 EXP SWAP1 DIV PUSH20 0xFFFFFFFFFFFFFFFFFFFFFFFFFFFFFFFFFFFFFFFF AND SWAP1 POP DUP7 JUMP JUMPDEST PUSH1 0x0 DUP1 PUSH1 0x0 SWAP1 SLOAD SWAP1 PUSH2 0x100 EXP SWAP1 DIV PUSH20 0xFFFFFFFFFFFFFFFFFFFFFFFFFFFFFFFFFFFFFFFF AND PUSH20 0xFFFFFFFFFFFFFFFFFFFFFFFFFFFFFFFFFFFFFFFF AND PUSH4 0x6352211E DUP4 PUSH1 0x40 MLOAD DUP3 PUSH4 0xFFFFFFFF AND PUSH1 0xE0 SHL DUP2 MSTORE PUSH1 0x4 ADD PUSH2 0xD80 SWAP2 SWAP1 PUSH2 0x1603 JUMP JUMPDEST PUSH1 0x20 PUSH1 0x40 MLOAD DUP1 DUP4 SUB DUP2 DUP7 GAS STATICCALL ISZERO DUP1 ISZERO PUSH2 0xD9D JUMPI RETURNDATASIZE PUSH1 0x0 DUP1 RETURNDATACOPY RETURNDATASIZE PUSH1 0x0 REVERT JUMPDEST POP POP POP POP PUSH1 0x40 MLOAD RETURNDATASIZE PUSH1 0x1F NOT PUSH1 0x1F DUP3 ADD AND DUP3 ADD DUP1 PUSH1 0x40 MSTORE POP DUP2 ADD SWAP1 PUSH2 0xDC1 SWAP2 SWAP1 PUSH2 0x1996 JUMP JUMPDEST SWAP1 POP CALLER PUSH20 0xFFFFFFFFFFFFFFFFFFFFFFFFFFFFFFFFFFFFFFFF AND DUP2 PUSH20 0xFFFFFFFFFFFFFFFFFFFFFFFFFFFFFFFFFFFFFFFF AND EQ ISZERO PUSH2 0xE32 JUMPI PUSH1 0x40 MLOAD PUSH32 0x8C379A000000000000000000000000000000000000000000000000000000000 DUP2 MSTORE PUSH1 0x4 ADD PUSH2 0xE29 SWAP1 PUSH2 0x1D3B JUMP JUMPDEST PUSH1 0x40 MLOAD DUP1 SWAP2 SUB SWAP1 REVERT JUMPDEST PUSH1 0x0 PUSH1 0x1 PUSH1 0x0 DUP5 DUP2 MSTORE PUSH1 0x20 ADD SWAP1 DUP2 MSTORE PUSH1 0x20 ADD PUSH1 0x0 KECCAK256 SLOAD GT PUSH2 0xE88 JUMPI PUSH1 0x40 MLOAD PUSH32 0x8C379A000000000000000000000000000000000000000000000000000000000 DUP2 MSTORE PUSH1 0x4 ADD PUSH2 0xE7F SWAP1 PUSH2 0x1DA7 JUMP JUMPDEST PUSH1 0x40 MLOAD DUP1 SWAP2 SUB SWAP1 REVERT JUMPDEST CALLVALUE PUSH1 0x1 PUSH1 0x0 DUP5 DUP2 MSTORE PUSH1 0x20 ADD SWAP1 DUP2 MSTORE PUSH1 0x20 ADD PUSH1 0x0 KECCAK256 SLOAD GT ISZERO PUSH2 0xEDE JUMPI PUSH1 0x40 MLOAD PUSH32 0x8C379A000000000000000000000000000000000000000000000000000000000 DUP2 MSTORE PUSH1 0x4 ADD PUSH2 0xED5 SWAP1 PUSH2 0x1E13 JUMP JUMPDEST PUSH1 0x40 MLOAD DUP1 SWAP2 SUB SWAP1 REVERT JUMPDEST DUP1 PUSH20 0xFFFFFFFFFFFFFFFFFFFFFFFFFFFFFFFFFFFFFFFF AND PUSH2 0x8FC CALLVALUE SWAP1 DUP2 ISZERO MUL SWAP1 PUSH1 0x40 MLOAD PUSH1 0x0 PUSH1 0x40 MLOAD DUP1 DUP4 SUB DUP2 DUP6 DUP9 DUP9 CALL SWAP4 POP POP POP POP ISZERO DUP1 ISZERO PUSH2 0xF24 JUMPI RETURNDATASIZE PUSH1 0x0 DUP1 RETURNDATACOPY RETURNDATASIZE PUSH1 0x0 REVERT JUMPDEST POP PUSH1 0x0 DUP1 SLOAD SWAP1 PUSH2 0x100 EXP SWAP1 DIV PUSH20 0xFFFFFFFFFFFFFFFFFFFFFFFFFFFFFFFFFFFFFFFF AND PUSH20 0xFFFFFFFFFFFFFFFFFFFFFFFFFFFFFFFFFFFFFFFF AND PUSH4 0x42842E0E DUP3 CALLER DUP6 PUSH1 0x40 MLOAD DUP5 PUSH4 0xFFFFFFFF AND PUSH1 0xE0 SHL DUP2 MSTORE PUSH1 0x4 ADD PUSH2 0xF82 SWAP4 SWAP3 SWAP2 SWAP1 PUSH2 0x1E33 JUMP JUMPDEST PUSH1 0x0 PUSH1 0x40 MLOAD DUP1 DUP4 SUB DUP2 PUSH1 0x0 DUP8 DUP1 EXTCODESIZE ISZERO DUP1 ISZERO PUSH2 0xF9C JUMPI PUSH1 0x0 DUP1 REVERT JUMPDEST POP GAS CALL ISZERO DUP1 ISZERO PUSH2 0xFB0 JUMPI RETURNDATASIZE PUSH1 0x0 DUP1 RETURNDATACOPY RETURNDATASIZE PUSH1 0x0 REVERT JUMPDEST POP POP POP POP PUSH1 0x0 PUSH1 0x1 PUSH1 0x0 DUP5 DUP2 MSTORE PUSH1 0x20 ADD SWAP1 DUP2 MSTORE PUSH1 0x20 ADD PUSH1 0x0 KECCAK256 DUP2 SWAP1 SSTORE POP PUSH1 0x0 JUMPDEST PUSH1 0x2 DUP1 SLOAD SWAP1 POP DUP2 LT ISZERO PUSH2 0x11AF JUMPI PUSH1 0x0 PUSH1 0x1 PUSH1 0x0 PUSH1 0x2 DUP5 DUP2 SLOAD DUP2 LT PUSH2 0xFF7 JUMPI PUSH2 0xFF6 PUSH2 0x1E6A JUMP JUMPDEST JUMPDEST SWAP1 PUSH1 0x0 MSTORE PUSH1 0x20 PUSH1 0x0 KECCAK256 SWAP1 PUSH1 0x7 MUL ADD PUSH1 0x0 ADD SLOAD DUP2 MSTORE PUSH1 0x20 ADD SWAP1 DUP2 MSTORE PUSH1 0x20 ADD PUSH1 0x0 KECCAK256 SLOAD EQ ISZERO PUSH2 0x119C JUMPI PUSH1 0x2 PUSH1 0x1 PUSH1 0x2 DUP1 SLOAD SWAP1 POP PUSH2 0x1032 SWAP2 SWAP1 PUSH2 0x1EC8 JUMP JUMPDEST DUP2 SLOAD DUP2 LT PUSH2 0x1043 JUMPI PUSH2 0x1042 PUSH2 0x1E6A JUMP JUMPDEST JUMPDEST SWAP1 PUSH1 0x0 MSTORE PUSH1 0x20 PUSH1 0x0 KECCAK256 SWAP1 PUSH1 0x7 MUL ADD PUSH1 0x2 DUP3 DUP2 SLOAD DUP2 LT PUSH2 0x1065 JUMPI PUSH2 0x1064 PUSH2 0x1E6A JUMP JUMPDEST JUMPDEST SWAP1 PUSH1 0x0 MSTORE PUSH1 0x20 PUSH1 0x0 KECCAK256 SWAP1 PUSH1 0x7 MUL ADD PUSH1 0x0 DUP3 ADD SLOAD DUP2 PUSH1 0x0 ADD SSTORE PUSH1 0x1 DUP3 ADD SLOAD DUP2 PUSH1 0x1 ADD SSTORE PUSH1 0x2 DUP3 ADD SLOAD DUP2 PUSH1 0x2 ADD SSTORE PUSH1 0x3 DUP3 ADD SLOAD DUP2 PUSH1 0x3 ADD SSTORE PUSH1 0x4 DUP3 ADD SLOAD DUP2 PUSH1 0x4 ADD SSTORE PUSH1 0x5 DUP3 ADD SLOAD DUP2 PUSH1 0x5 ADD SSTORE PUSH1 0x6 DUP3 ADD PUSH1 0x0 SWAP1 SLOAD SWAP1 PUSH2 0x100 EXP SWAP1 DIV PUSH20 0xFFFFFFFFFFFFFFFFFFFFFFFFFFFFFFFFFFFFFFFF AND DUP2 PUSH1 0x6 ADD PUSH1 0x0 PUSH2 0x100 EXP DUP2 SLOAD DUP2 PUSH20 0xFFFFFFFFFFFFFFFFFFFFFFFFFFFFFFFFFFFFFFFF MUL NOT AND SWAP1 DUP4 PUSH20 0xFFFFFFFFFFFFFFFFFFFFFFFFFFFFFFFFFFFFFFFF AND MUL OR SWAP1 SSTORE POP SWAP1 POP POP PUSH1 0x2 DUP1 SLOAD DUP1 PUSH2 0x112B JUMPI PUSH2 0x112A PUSH2 0x1EFC JUMP JUMPDEST JUMPDEST PUSH1 0x1 SWAP1 SUB DUP2 DUP2 SWAP1 PUSH1 0x0 MSTORE PUSH1 0x20 PUSH1 0x0 KECCAK256 SWAP1 PUSH1 0x7 MUL ADD PUSH1 0x0 DUP1 DUP3 ADD PUSH1 0x0 SWAP1 SSTORE PUSH1 0x1 DUP3 ADD PUSH1 0x0 SWAP1 SSTORE PUSH1 0x2 DUP3 ADD PUSH1 0x0 SWAP1 SSTORE PUSH1 0x3 DUP3 ADD PUSH1 0x0 SWAP1 SSTORE PUSH1 0x4 DUP3 ADD PUSH1 0x0 SWAP1 SSTORE PUSH1 0x5 DUP3 ADD PUSH1 0x0 SWAP1 SSTORE PUSH1 0x6 DUP3 ADD PUSH1 0x0 PUSH2 0x100 EXP DUP2 SLOAD SWAP1 PUSH20 0xFFFFFFFFFFFFFFFFFFFFFFFFFFFFFFFFFFFFFFFF MUL NOT AND SWAP1 SSTORE POP POP SWAP1 SSTORE JUMPDEST DUP1 DUP1 PUSH2 0x11A7 SWAP1 PUSH2 0x1F2B JUMP JUMPDEST SWAP2 POP POP PUSH2 0xFD0 JUMP JUMPDEST POP POP POP JUMP JUMPDEST PUSH1 0x0 PUSH1 0x1 PUSH1 0x0 DUP4 DUP2 MSTORE PUSH1 0x20 ADD SWAP1 DUP2 MSTORE PUSH1 0x20 ADD PUSH1 0x0 KECCAK256 SLOAD SWAP1 POP SWAP2 SWAP1 POP JUMP JUMPDEST PUSH1 0x60 PUSH1 0x0 DUP1 PUSH1 0x0 SWAP1 SLOAD SWAP1 PUSH2 0x100 EXP SWAP1 DIV PUSH20 0xFFFFFFFFFFFFFFFFFFFFFFFFFFFFFFFFFFFFFFFF AND PUSH20 0xFFFFFFFFFFFFFFFFFFFFFFFFFFFFFFFFFFFFFFFF AND PUSH4 0x70A08231 CALLER PUSH1 0x40 MLOAD DUP3 PUSH4 0xFFFFFFFF AND PUSH1 0xE0 SHL DUP2 MSTORE PUSH1 0x4 ADD PUSH2 0x122F SWAP2 SWAP1 PUSH2 0x1F74 JUMP JUMPDEST PUSH1 0x20 PUSH1 0x40 MLOAD DUP1 DUP4 SUB DUP2 DUP7 GAS STATICCALL ISZERO DUP1 ISZERO PUSH2 0x124C JUMPI RETURNDATASIZE PUSH1 0x0 DUP1 RETURNDATACOPY RETURNDATASIZE PUSH1 0x0 REVERT JUMPDEST POP POP POP POP PUSH1 0x40 MLOAD RETURNDATASIZE PUSH1 0x1F NOT PUSH1 0x1F DUP3 ADD AND DUP3 ADD DUP1 PUSH1 0x40 MSTORE POP DUP2 ADD SWAP1 PUSH2 0x1270 SWAP2 SWAP1 PUSH2 0x19D8 JUMP JUMPDEST SWAP1 POP PUSH1 0x0 DUP2 GT PUSH2 0x12B5 JUMPI PUSH1 0x40 MLOAD PUSH32 0x8C379A000000000000000000000000000000000000000000000000000000000 DUP2 MSTORE PUSH1 0x4 ADD PUSH2 0x12AC SWAP1 PUSH2 0x1FDB JUMP JUMPDEST PUSH1 0x40 MLOAD DUP1 SWAP2 SUB SWAP1 REVERT JUMPDEST PUSH1 0x0 DUP2 PUSH8 0xFFFFFFFFFFFFFFFF DUP2 GT ISZERO PUSH2 0x12D1 JUMPI PUSH2 0x12D0 PUSH2 0x1FFB JUMP JUMPDEST JUMPDEST PUSH1 0x40 MLOAD SWAP1 DUP1 DUP3 MSTORE DUP1 PUSH1 0x20 MUL PUSH1 0x20 ADD DUP3 ADD PUSH1 0x40 MSTORE DUP1 ISZERO PUSH2 0x130A JUMPI DUP2 PUSH1 0x20 ADD JUMPDEST PUSH2 0x12F7 PUSH2 0x1504 JUMP JUMPDEST DUP2 MSTORE PUSH1 0x20 ADD SWAP1 PUSH1 0x1 SWAP1 SUB SWAP1 DUP2 PUSH2 0x12EF JUMPI SWAP1 POP JUMPDEST POP SWAP1 POP PUSH1 0x0 DUP1 PUSH1 0x0 SWAP1 SLOAD SWAP1 PUSH2 0x100 EXP SWAP1 DIV PUSH20 0xFFFFFFFFFFFFFFFFFFFFFFFFFFFFFFFFFFFFFFFF AND PUSH20 0xFFFFFFFFFFFFFFFFFFFFFFFFFFFFFFFFFFFFFFFF AND PUSH4 0xFF1B75E PUSH1 0x40 MLOAD DUP2 PUSH4 0xFFFFFFFF AND PUSH1 0xE0 SHL DUP2 MSTORE PUSH1 0x4 ADD PUSH1 0x20 PUSH1 0x40 MLOAD DUP1 DUP4 SUB DUP2 DUP7 GAS STATICCALL ISZERO DUP1 ISZERO PUSH2 0x137B JUMPI RETURNDATASIZE PUSH1 0x0 DUP1 RETURNDATACOPY RETURNDATASIZE PUSH1 0x0 REVERT JUMPDEST POP POP POP POP PUSH1 0x40 MLOAD RETURNDATASIZE PUSH1 0x1F NOT PUSH1 0x1F DUP3 ADD AND DUP3 ADD DUP1 PUSH1 0x40 MSTORE POP DUP2 ADD SWAP1 PUSH2 0x139F SWAP2 SWAP1 PUSH2 0x19D8 JUMP JUMPDEST SWAP1 POP PUSH1 0x0 JUMPDEST DUP2 DUP2 LT ISZERO PUSH2 0x14E2 JUMPI PUSH1 0x0 DUP1 PUSH1 0x0 SWAP1 SLOAD SWAP1 PUSH2 0x100 EXP SWAP1 DIV PUSH20 0xFFFFFFFFFFFFFFFFFFFFFFFFFFFFFFFFFFFFFFFF AND PUSH20 0xFFFFFFFFFFFFFFFFFFFFFFFFFFFFFFFFFFFFFFFF AND PUSH4 0x2F745C59 CALLER DUP5 PUSH1 0x40 MLOAD DUP4 PUSH4 0xFFFFFFFF AND PUSH1 0xE0 SHL DUP2 MSTORE PUSH1 0x4 ADD PUSH2 0x140A SWAP3 SWAP2 SWAP1 PUSH2 0x202A JUMP JUMPDEST PUSH1 0x20 PUSH1 0x40 MLOAD DUP1 DUP4 SUB DUP2 DUP7 GAS STATICCALL ISZERO DUP1 ISZERO PUSH2 0x1427 JUMPI RETURNDATASIZE PUSH1 0x0 DUP1 RETURNDATACOPY RETURNDATASIZE PUSH1 0x0 REVERT JUMPDEST POP POP POP POP PUSH1 0x40 MLOAD RETURNDATASIZE PUSH1 0x1F NOT PUSH1 0x1F DUP3 ADD AND DUP3 ADD DUP1 PUSH1 0x40 MSTORE POP DUP2 ADD SWAP1 PUSH2 0x144B SWAP2 SWAP1 PUSH2 0x19D8 JUMP JUMPDEST SWAP1 POP PUSH1 0x0 DUP1 PUSH1 0x0 DUP1 PUSH1 0x0 PUSH2 0x145E DUP7 PUSH2 0x968 JUMP JUMPDEST SWAP5 POP SWAP5 POP SWAP5 POP SWAP5 POP SWAP5 POP PUSH1 0x40 MLOAD DUP1 PUSH1 0xC0 ADD PUSH1 0x40 MSTORE DUP1 DUP8 DUP2 MSTORE PUSH1 0x20 ADD DUP7 DUP2 MSTORE PUSH1 0x20 ADD DUP6 DUP2 MSTORE PUSH1 0x20 ADD DUP5 DUP2 MSTORE PUSH1 0x20 ADD DUP4 DUP2 MSTORE PUSH1 0x20 ADD DUP3 PUSH20 0xFFFFFFFFFFFFFFFFFFFFFFFFFFFFFFFFFFFFFFFF AND DUP2 MSTORE POP DUP10 DUP9 DUP2 MLOAD DUP2 LT PUSH2 0x14BE JUMPI PUSH2 0x14BD PUSH2 0x1E6A JUMP JUMPDEST JUMPDEST PUSH1 0x20 MUL PUSH1 0x20 ADD ADD DUP2 SWAP1 MSTORE POP POP POP POP POP POP POP DUP1 DUP1 PUSH2 0x14DA SWAP1 PUSH2 0x1F2B JUMP JUMPDEST SWAP2 POP POP PUSH2 0x13A4 JUMP JUMPDEST POP DUP2 SWAP4 POP POP POP POP SWAP1 JUMP JUMPDEST PUSH1 0x1 PUSH1 0x20 MSTORE DUP1 PUSH1 0x0 MSTORE PUSH1 0x40 PUSH1 0x0 KECCAK256 PUSH1 0x0 SWAP2 POP SWAP1 POP SLOAD DUP2 JUMP JUMPDEST PUSH1 0x40 MLOAD DUP1 PUSH1 0xC0 ADD PUSH1 0x40 MSTORE DUP1 PUSH1 0x0 DUP2 MSTORE PUSH1 0x20 ADD PUSH1 0x0 DUP2 MSTORE PUSH1 0x20 ADD PUSH1 0x0 DUP2 MSTORE PUSH1 0x20 ADD PUSH1 0x0 DUP2 MSTORE PUSH1 0x20 ADD PUSH1 0x0 DUP2 MSTORE PUSH1 0x20 ADD PUSH1 0x0 PUSH20 0xFFFFFFFFFFFFFFFFFFFFFFFFFFFFFFFFFFFFFFFF AND DUP2 MSTORE POP SWAP1 JUMP JUMPDEST PUSH1 0x0 PUSH20 0xFFFFFFFFFFFFFFFFFFFFFFFFFFFFFFFFFFFFFFFF DUP3 AND SWAP1 POP SWAP2 SWAP1 POP JUMP JUMPDEST PUSH1 0x0 DUP2 SWAP1 POP SWAP2 SWAP1 POP JUMP JUMPDEST PUSH1 0x0 PUSH2 0x1595 PUSH2 0x1590 PUSH2 0x158B DUP5 PUSH2 0x1550 JUMP JUMPDEST PUSH2 0x1570 JUMP JUMPDEST PUSH2 0x1550 JUMP JUMPDEST SWAP1 POP SWAP2 SWAP1 POP JUMP JUMPDEST PUSH1 0x0 PUSH2 0x15A7 DUP3 PUSH2 0x157A JUMP JUMPDEST SWAP1 POP SWAP2 SWAP1 POP JUMP JUMPDEST PUSH1 0x0 PUSH2 0x15B9 DUP3 PUSH2 0x159C JUMP JUMPDEST SWAP1 POP SWAP2 SWAP1 POP JUMP JUMPDEST PUSH2 0x15C9 DUP2 PUSH2 0x15AE JUMP JUMPDEST DUP3 MSTORE POP POP JUMP JUMPDEST PUSH1 0x0 PUSH1 0x20 DUP3 ADD SWAP1 POP PUSH2 0x15E4 PUSH1 0x0 DUP4 ADD DUP5 PUSH2 0x15C0 JUMP JUMPDEST SWAP3 SWAP2 POP POP JUMP JUMPDEST PUSH1 0x0 DUP2 SWAP1 POP SWAP2 SWAP1 POP JUMP JUMPDEST PUSH2 0x15FD DUP2 PUSH2 0x15EA JUMP JUMPDEST DUP3 MSTORE POP POP JUMP JUMPDEST PUSH1 0x0 PUSH1 0x20 DUP3 ADD SWAP1 POP PUSH2 0x1618 PUSH1 0x0 DUP4 ADD DUP5 PUSH2 0x15F4 JUMP JUMPDEST SWAP3 SWAP2 POP POP JUMP JUMPDEST PUSH1 0x0 DUP1 REVERT JUMPDEST PUSH2 0x162C DUP2 PUSH2 0x15EA JUMP JUMPDEST DUP2 EQ PUSH2 0x1637 JUMPI PUSH1 0x0 DUP1 REVERT JUMPDEST POP JUMP JUMPDEST PUSH1 0x0 DUP2 CALLDATALOAD SWAP1 POP PUSH2 0x1649 DUP2 PUSH2 0x1623 JUMP JUMPDEST SWAP3 SWAP2 POP POP JUMP JUMPDEST PUSH1 0x0 PUSH1 0x20 DUP3 DUP5 SUB SLT ISZERO PUSH2 0x1665 JUMPI PUSH2 0x1664 PUSH2 0x161E JUMP JUMPDEST JUMPDEST PUSH1 0x0 PUSH2 0x1673 DUP5 DUP3 DUP6 ADD PUSH2 0x163A JUMP JUMPDEST SWAP2 POP POP SWAP3 SWAP2 POP POP JUMP JUMPDEST PUSH1 0x0 PUSH2 0x1687 DUP3 PUSH2 0x1550 JUMP JUMPDEST SWAP1 POP SWAP2 SWAP1 POP JUMP JUMPDEST PUSH2 0x1697 DUP2 PUSH2 0x167C JUMP JUMPDEST DUP3 MSTORE POP POP JUMP JUMPDEST PUSH1 0x0 PUSH1 0xE0 DUP3 ADD SWAP1 POP PUSH2 0x16B2 PUSH1 0x0 DUP4 ADD DUP11 PUSH2 0x15F4 JUMP JUMPDEST PUSH2 0x16BF PUSH1 0x20 DUP4 ADD DUP10 PUSH2 0x15F4 JUMP JUMPDEST PUSH2 0x16CC PUSH1 0x40 DUP4 ADD DUP9 PUSH2 0x15F4 JUMP JUMPDEST PUSH2 0x16D9 PUSH1 0x60 DUP4 ADD DUP8 PUSH2 0x15F4 JUMP JUMPDEST PUSH2 0x16E6 PUSH1 0x80 DUP4 ADD DUP7 PUSH2 0x15F4 JUMP JUMPDEST PUSH2 0x16F3 PUSH1 0xA0 DUP4 ADD DUP6 PUSH2 0x15F4 JUMP JUMPDEST PUSH2 0x1700 PUSH1 0xC0 DUP4 ADD DUP5 PUSH2 0x168E JUMP JUMPDEST SWAP9 SWAP8 POP POP POP POP POP POP POP POP JUMP JUMPDEST PUSH1 0x0 DUP1 PUSH1 0x40 DUP4 DUP6 SUB SLT ISZERO PUSH2 0x1723 JUMPI PUSH2 0x1722 PUSH2 0x161E JUMP JUMPDEST JUMPDEST PUSH1 0x0 PUSH2 0x1731 DUP6 DUP3 DUP7 ADD PUSH2 0x163A JUMP JUMPDEST SWAP3 POP POP PUSH1 0x20 PUSH2 0x1742 DUP6 DUP3 DUP7 ADD PUSH2 0x163A JUMP JUMPDEST SWAP2 POP POP SWAP3 POP SWAP3 SWAP1 POP JUMP JUMPDEST PUSH1 0x0 PUSH1 0xA0 DUP3 ADD SWAP1 POP PUSH2 0x1761 PUSH1 0x0 DUP4 ADD DUP9 PUSH2 0x15F4 JUMP JUMPDEST PUSH2 0x176E PUSH1 0x20 DUP4 ADD DUP8 PUSH2 0x15F4 JUMP JUMPDEST PUSH2 0x177B PUSH1 0x40 DUP4 ADD DUP7 PUSH2 0x15F4 JUMP JUMPDEST PUSH2 0x1788 PUSH1 0x60 DUP4 ADD DUP6 PUSH2 0x15F4 JUMP JUMPDEST PUSH2 0x1795 PUSH1 0x80 DUP4 ADD DUP5 PUSH2 0x168E JUMP JUMPDEST SWAP7 SWAP6 POP POP POP POP POP POP JUMP JUMPDEST PUSH1 0x0 PUSH1 0xC0 DUP3 ADD SWAP1 POP PUSH2 0x17B4 PUSH1 0x0 DUP4 ADD DUP10 PUSH2 0x15F4 JUMP JUMPDEST PUSH2 0x17C1 PUSH1 0x20 DUP4 ADD DUP9 PUSH2 0x15F4 JUMP JUMPDEST PUSH2 0x17CE PUSH1 0x40 DUP4 ADD DUP8 PUSH2 0x15F4 JUMP JUMPDEST PUSH2 0x17DB PUSH1 0x60 DUP4 ADD DUP7 PUSH2 0x15F4 JUMP JUMPDEST PUSH2 0x17E8 PUSH1 0x80 DUP4 ADD DUP6 PUSH2 0x15F4 JUMP JUMPDEST PUSH2 0x17F5 PUSH1 0xA0 DUP4 ADD DUP5 PUSH2 0x168E JUMP JUMPDEST SWAP8 SWAP7 POP POP POP POP POP POP POP JUMP JUMPDEST PUSH1 0x0 DUP2 MLOAD SWAP1 POP SWAP2 SWAP1 POP JUMP JUMPDEST PUSH1 0x0 DUP3 DUP3 MSTORE PUSH1 0x20 DUP3 ADD SWAP1 POP SWAP3 SWAP2 POP POP JUMP JUMPDEST PUSH1 0x0 DUP2 SWAP1 POP PUSH1 0x20 DUP3 ADD SWAP1 POP SWAP2 SWAP1 POP JUMP JUMPDEST PUSH2 0x1835 DUP2 PUSH2 0x15EA JUMP JUMPDEST DUP3 MSTORE POP POP JUMP JUMPDEST PUSH2 0x1844 DUP2 PUSH2 0x167C JUMP JUMPDEST DUP3 MSTORE POP POP JUMP JUMPDEST PUSH1 0xC0 DUP3 ADD PUSH1 0x0 DUP3 ADD MLOAD PUSH2 0x1860 PUSH1 0x0 DUP6 ADD DUP3 PUSH2 0x182C JUMP JUMPDEST POP PUSH1 0x20 DUP3 ADD MLOAD PUSH2 0x1873 PUSH1 0x20 DUP6 ADD DUP3 PUSH2 0x182C JUMP JUMPDEST POP PUSH1 0x40 DUP3 ADD MLOAD PUSH2 0x1886 PUSH1 0x40 DUP6 ADD DUP3 PUSH2 0x182C JUMP JUMPDEST POP PUSH1 0x60 DUP3 ADD MLOAD PUSH2 0x1899 PUSH1 0x60 DUP6 ADD DUP3 PUSH2 0x182C JUMP JUMPDEST POP PUSH1 0x80 DUP3 ADD MLOAD PUSH2 0x18AC PUSH1 0x80 DUP6 ADD DUP3 PUSH2 0x182C JUMP JUMPDEST POP PUSH1 0xA0 DUP3 ADD MLOAD PUSH2 0x18BF PUSH1 0xA0 DUP6 ADD DUP3 PUSH2 0x183B JUMP JUMPDEST POP POP POP POP JUMP JUMPDEST PUSH1 0x0 PUSH2 0x18D1 DUP4 DUP4 PUSH2 0x184A JUMP JUMPDEST PUSH1 0xC0 DUP4 ADD SWAP1 POP SWAP3 SWAP2 POP POP JUMP JUMPDEST PUSH1 0x0 PUSH1 0x20 DUP3 ADD SWAP1 POP SWAP2 SWAP1 POP JUMP JUMPDEST PUSH1 0x0 PUSH2 0x18F5 DUP3 PUSH2 0x1800 JUMP JUMPDEST PUSH2 0x18FF DUP2 DUP6 PUSH2 0x180B JUMP JUMPDEST SWAP4 POP PUSH2 0x190A DUP4 PUSH2 0x181C JUMP JUMPDEST DUP1 PUSH1 0x0 JUMPDEST DUP4 DUP2 LT ISZERO PUSH2 0x193B JUMPI DUP2 MLOAD PUSH2 0x1922 DUP9 DUP3 PUSH2 0x18C5 JUMP JUMPDEST SWAP8 POP PUSH2 0x192D DUP4 PUSH2 0x18DD JUMP JUMPDEST SWAP3 POP POP PUSH1 0x1 DUP2 ADD SWAP1 POP PUSH2 0x190E JUMP JUMPDEST POP DUP6 SWAP4 POP POP POP POP SWAP3 SWAP2 POP POP JUMP JUMPDEST PUSH1 0x0 PUSH1 0x20 DUP3 ADD SWAP1 POP DUP2 DUP2 SUB PUSH1 0x0 DUP4 ADD MSTORE PUSH2 0x1962 DUP2 DUP5 PUSH2 0x18EA JUMP JUMPDEST SWAP1 POP SWAP3 SWAP2 POP POP JUMP JUMPDEST PUSH2 0x1973 DUP2 PUSH2 0x167C JUMP JUMPDEST DUP2 EQ PUSH2 0x197E JUMPI PUSH1 0x0 DUP1 REVERT JUMPDEST POP JUMP JUMPDEST PUSH1 0x0 DUP2 MLOAD SWAP1 POP PUSH2 0x1990 DUP2 PUSH2 0x196A JUMP JUMPDEST SWAP3 SWAP2 POP POP JUMP JUMPDEST PUSH1 0x0 PUSH1 0x20 DUP3 DUP5 SUB SLT ISZERO PUSH2 0x19AC JUMPI PUSH2 0x19AB PUSH2 0x161E JUMP JUMPDEST JUMPDEST PUSH1 0x0 PUSH2 0x19BA DUP5 DUP3 DUP6 ADD PUSH2 0x1981 JUMP JUMPDEST SWAP2 POP POP SWAP3 SWAP2 POP POP JUMP JUMPDEST PUSH1 0x0 DUP2 MLOAD SWAP1 POP PUSH2 0x19D2 DUP2 PUSH2 0x1623 JUMP JUMPDEST SWAP3 SWAP2 POP POP JUMP JUMPDEST PUSH1 0x0 PUSH1 0x20 DUP3 DUP5 SUB SLT ISZERO PUSH2 0x19EE JUMPI PUSH2 0x19ED PUSH2 0x161E JUMP JUMPDEST JUMPDEST PUSH1 0x0 PUSH2 0x19FC DUP5 DUP3 DUP6 ADD PUSH2 0x19C3 JUMP JUMPDEST SWAP2 POP POP SWAP3 SWAP2 POP POP JUMP JUMPDEST PUSH1 0x0 PUSH16 0xFFFFFFFFFFFFFFFFFFFFFFFFFFFFFFFF DUP3 AND SWAP1 POP SWAP2 SWAP1 POP JUMP JUMPDEST PUSH2 0x1A2A DUP2 PUSH2 0x1A05 JUMP JUMPDEST DUP2 EQ PUSH2 0x1A35 JUMPI PUSH1 0x0 DUP1 REVERT JUMPDEST POP JUMP JUMPDEST PUSH1 0x0 DUP2 MLOAD SWAP1 POP PUSH2 0x1A47 DUP2 PUSH2 0x1A21 JUMP JUMPDEST SWAP3 SWAP2 POP POP JUMP JUMPDEST PUSH1 0x0 PUSH1 0x20 DUP3 DUP5 SUB SLT ISZERO PUSH2 0x1A63 JUMPI PUSH2 0x1A62 PUSH2 0x161E JUMP JUMPDEST JUMPDEST PUSH1 0x0 PUSH2 0x1A71 DUP5 DUP3 DUP6 ADD PUSH2 0x1A38 JUMP JUMPDEST SWAP2 POP POP SWAP3 SWAP2 POP POP JUMP JUMPDEST PUSH1 0x0 DUP3 DUP3 MSTORE PUSH1 0x20 DUP3 ADD SWAP1 POP SWAP3 SWAP2 POP POP JUMP JUMPDEST PUSH32 0x43616C6C6572206973206E6F7420746F6B656E206F776E65722E000000000000 PUSH1 0x0 DUP3 ADD MSTORE POP JUMP JUMPDEST PUSH1 0x0 PUSH2 0x1AC1 PUSH1 0x1A DUP4 PUSH2 0x1A7A JUMP JUMPDEST SWAP2 POP PUSH2 0x1ACC DUP3 PUSH2 0x1A8B JUMP JUMPDEST PUSH1 0x20 DUP3 ADD SWAP1 POP SWAP2 SWAP1 POP JUMP JUMPDEST PUSH1 0x0 PUSH1 0x20 DUP3 ADD SWAP1 POP DUP2 DUP2 SUB PUSH1 0x0 DUP4 ADD MSTORE PUSH2 0x1AF0 DUP2 PUSH2 0x1AB4 JUMP JUMPDEST SWAP1 POP SWAP2 SWAP1 POP JUMP JUMPDEST PUSH32 0x5072696365206973207A65726F206F72206C6F7765722E000000000000000000 PUSH1 0x0 DUP3 ADD MSTORE POP JUMP JUMPDEST PUSH1 0x0 PUSH2 0x1B2D PUSH1 0x17 DUP4 PUSH2 0x1A7A JUMP JUMPDEST SWAP2 POP PUSH2 0x1B38 DUP3 PUSH2 0x1AF7 JUMP JUMPDEST PUSH1 0x20 DUP3 ADD SWAP1 POP SWAP2 SWAP1 POP JUMP JUMPDEST PUSH1 0x0 PUSH1 0x20 DUP3 ADD SWAP1 POP DUP2 DUP2 SUB PUSH1 0x0 DUP4 ADD MSTORE PUSH2 0x1B5C DUP2 PUSH2 0x1B20 JUMP JUMPDEST SWAP1 POP SWAP2 SWAP1 POP JUMP JUMPDEST PUSH32 0x5468697320746F6B656E20697320616C7265616479206F6E2073616C652E0000 PUSH1 0x0 DUP3 ADD MSTORE POP JUMP JUMPDEST PUSH1 0x0 PUSH2 0x1B99 PUSH1 0x1E DUP4 PUSH2 0x1A7A JUMP JUMPDEST SWAP2 POP PUSH2 0x1BA4 DUP3 PUSH2 0x1B63 JUMP JUMPDEST PUSH1 0x20 DUP3 ADD SWAP1 POP SWAP2 SWAP1 POP JUMP JUMPDEST PUSH1 0x0 PUSH1 0x20 DUP3 ADD SWAP1 POP DUP2 DUP2 SUB PUSH1 0x0 DUP4 ADD MSTORE PUSH2 0x1BC8 DUP2 PUSH2 0x1B8C JUMP JUMPDEST SWAP1 POP SWAP2 SWAP1 POP JUMP JUMPDEST PUSH1 0x0 PUSH1 0x40 DUP3 ADD SWAP1 POP PUSH2 0x1BE4 PUSH1 0x0 DUP4 ADD DUP6 PUSH2 0x168E JUMP JUMPDEST PUSH2 0x1BF1 PUSH1 0x20 DUP4 ADD DUP5 PUSH2 0x168E JUMP JUMPDEST SWAP4 SWAP3 POP POP POP JUMP JUMPDEST PUSH1 0x0 DUP2 ISZERO ISZERO SWAP1 POP SWAP2 SWAP1 POP JUMP JUMPDEST PUSH2 0x1C0D DUP2 PUSH2 0x1BF8 JUMP JUMPDEST DUP2 EQ PUSH2 0x1C18 JUMPI PUSH1 0x0 DUP1 REVERT JUMPDEST POP JUMP JUMPDEST PUSH1 0x0 DUP2 MLOAD SWAP1 POP PUSH2 0x1C2A DUP2 PUSH2 0x1C04 JUMP JUMPDEST SWAP3 SWAP2 POP POP JUMP JUMPDEST PUSH1 0x0 PUSH1 0x20 DUP3 DUP5 SUB SLT ISZERO PUSH2 0x1C46 JUMPI PUSH2 0x1C45 PUSH2 0x161E JUMP JUMPDEST JUMPDEST PUSH1 0x0 PUSH2 0x1C54 DUP5 DUP3 DUP6 ADD PUSH2 0x1C1B JUMP JUMPDEST SWAP2 POP POP SWAP3 SWAP2 POP POP JUMP JUMPDEST PUSH32 0x546F6B656E206F6E77657220646964206E6F7420617070726F766520746F6B65 PUSH1 0x0 DUP3 ADD MSTORE PUSH32 0x6E2E000000000000000000000000000000000000000000000000000000000000 PUSH1 0x20 DUP3 ADD MSTORE POP JUMP JUMPDEST PUSH1 0x0 PUSH2 0x1CB9 PUSH1 0x22 DUP4 PUSH2 0x1A7A JUMP JUMPDEST SWAP2 POP PUSH2 0x1CC4 DUP3 PUSH2 0x1C5D JUMP JUMPDEST PUSH1 0x40 DUP3 ADD SWAP1 POP SWAP2 SWAP1 POP JUMP JUMPDEST PUSH1 0x0 PUSH1 0x20 DUP3 ADD SWAP1 POP DUP2 DUP2 SUB PUSH1 0x0 DUP4 ADD MSTORE PUSH2 0x1CE8 DUP2 PUSH2 0x1CAC JUMP JUMPDEST SWAP1 POP SWAP2 SWAP1 POP JUMP JUMPDEST PUSH32 0x43616C6C657220697320746F6B656E206F776E65722E00000000000000000000 PUSH1 0x0 DUP3 ADD MSTORE POP JUMP JUMPDEST PUSH1 0x0 PUSH2 0x1D25 PUSH1 0x16 DUP4 PUSH2 0x1A7A JUMP JUMPDEST SWAP2 POP PUSH2 0x1D30 DUP3 PUSH2 0x1CEF JUMP JUMPDEST PUSH1 0x20 DUP3 ADD SWAP1 POP SWAP2 SWAP1 POP JUMP JUMPDEST PUSH1 0x0 PUSH1 0x20 DUP3 ADD SWAP1 POP DUP2 DUP2 SUB PUSH1 0x0 DUP4 ADD MSTORE PUSH2 0x1D54 DUP2 PUSH2 0x1D18 JUMP JUMPDEST SWAP1 POP SWAP2 SWAP1 POP JUMP JUMPDEST PUSH32 0x5468697320746F6B656E206E6F742073616C652E000000000000000000000000 PUSH1 0x0 DUP3 ADD MSTORE POP JUMP JUMPDEST PUSH1 0x0 PUSH2 0x1D91 PUSH1 0x14 DUP4 PUSH2 0x1A7A JUMP JUMPDEST SWAP2 POP PUSH2 0x1D9C DUP3 PUSH2 0x1D5B JUMP JUMPDEST PUSH1 0x20 DUP3 ADD SWAP1 POP SWAP2 SWAP1 POP JUMP JUMPDEST PUSH1 0x0 PUSH1 0x20 DUP3 ADD SWAP1 POP DUP2 DUP2 SUB PUSH1 0x0 DUP4 ADD MSTORE PUSH2 0x1DC0 DUP2 PUSH2 0x1D84 JUMP JUMPDEST SWAP1 POP SWAP2 SWAP1 POP JUMP JUMPDEST PUSH32 0x43616C6C65722073656E74206C6F776572207468616E2070726963652E000000 PUSH1 0x0 DUP3 ADD MSTORE POP JUMP JUMPDEST PUSH1 0x0 PUSH2 0x1DFD PUSH1 0x1D DUP4 PUSH2 0x1A7A JUMP JUMPDEST SWAP2 POP PUSH2 0x1E08 DUP3 PUSH2 0x1DC7 JUMP JUMPDEST PUSH1 0x20 DUP3 ADD SWAP1 POP SWAP2 SWAP1 POP JUMP JUMPDEST PUSH1 0x0 PUSH1 0x20 DUP3 ADD SWAP1 POP DUP2 DUP2 SUB PUSH1 0x0 DUP4 ADD MSTORE PUSH2 0x1E2C DUP2 PUSH2 0x1DF0 JUMP JUMPDEST SWAP1 POP SWAP2 SWAP1 POP JUMP JUMPDEST PUSH1 0x0 PUSH1 0x60 DUP3 ADD SWAP1 POP PUSH2 0x1E48 PUSH1 0x0 DUP4 ADD DUP7 PUSH2 0x168E JUMP JUMPDEST PUSH2 0x1E55 PUSH1 0x20 DUP4 ADD DUP6 PUSH2 0x168E JUMP JUMPDEST PUSH2 0x1E62 PUSH1 0x40 DUP4 ADD DUP5 PUSH2 0x15F4 JUMP JUMPDEST SWAP5 SWAP4 POP POP POP POP JUMP JUMPDEST PUSH32 0x4E487B7100000000000000000000000000000000000000000000000000000000 PUSH1 0x0 MSTORE PUSH1 0x32 PUSH1 0x4 MSTORE PUSH1 0x24 PUSH1 0x0 REVERT JUMPDEST PUSH32 0x4E487B7100000000000000000000000000000000000000000000000000000000 PUSH1 0x0 MSTORE PUSH1 0x11 PUSH1 0x4 MSTORE PUSH1 0x24 PUSH1 0x0 REVERT JUMPDEST PUSH1 0x0 PUSH2 0x1ED3 DUP3 PUSH2 0x15EA JUMP JUMPDEST SWAP2 POP PUSH2 0x1EDE DUP4 PUSH2 0x15EA JUMP JUMPDEST SWAP3 POP DUP3 DUP3 LT ISZERO PUSH2 0x1EF1 JUMPI PUSH2 0x1EF0 PUSH2 0x1E99 JUMP JUMPDEST JUMPDEST DUP3 DUP3 SUB SWAP1 POP SWAP3 SWAP2 POP POP JUMP JUMPDEST PUSH32 0x4E487B7100000000000000000000000000000000000000000000000000000000 PUSH1 0x0 MSTORE PUSH1 0x31 PUSH1 0x4 MSTORE PUSH1 0x24 PUSH1 0x0 REVERT JUMPDEST PUSH1 0x0 PUSH2 0x1F36 DUP3 PUSH2 0x15EA JUMP JUMPDEST SWAP2 POP PUSH32 0xFFFFFFFFFFFFFFFFFFFFFFFFFFFFFFFFFFFFFFFFFFFFFFFFFFFFFFFFFFFFFFFF DUP3 EQ ISZERO PUSH2 0x1F69 JUMPI PUSH2 0x1F68 PUSH2 0x1E99 JUMP JUMPDEST JUMPDEST PUSH1 0x1 DUP3 ADD SWAP1 POP SWAP2 SWAP1 POP JUMP JUMPDEST PUSH1 0x0 PUSH1 0x20 DUP3 ADD SWAP1 POP PUSH2 0x1F89 PUSH1 0x0 DUP4 ADD DUP5 PUSH2 0x168E JUMP JUMPDEST SWAP3 SWAP2 POP POP JUMP JUMPDEST PUSH32 0x596F7520646964206E6F74206861766520746F6B656E2E000000000000000000 PUSH1 0x0 DUP3 ADD MSTORE POP JUMP JUMPDEST PUSH1 0x0 PUSH2 0x1FC5 PUSH1 0x17 DUP4 PUSH2 0x1A7A JUMP JUMPDEST SWAP2 POP PUSH2 0x1FD0 DUP3 PUSH2 0x1F8F JUMP JUMPDEST PUSH1 0x20 DUP3 ADD SWAP1 POP SWAP2 SWAP1 POP JUMP JUMPDEST PUSH1 0x0 PUSH1 0x20 DUP3 ADD SWAP1 POP DUP2 DUP2 SUB PUSH1 0x0 DUP4 ADD MSTORE PUSH2 0x1FF4 DUP2 PUSH2 0x1FB8 JUMP JUMPDEST SWAP1 POP SWAP2 SWAP1 POP JUMP JUMPDEST PUSH32 0x4E487B7100000000000000000000000000000000000000000000000000000000 PUSH1 0x0 MSTORE PUSH1 0x41 PUSH1 0x4 MSTORE PUSH1 0x24 PUSH1 0x0 REVERT JUMPDEST PUSH1 0x0 PUSH1 0x40 DUP3 ADD SWAP1 POP PUSH2 0x203F PUSH1 0x0 DUP4 ADD DUP6 PUSH2 0x168E JUMP JUMPDEST PUSH2 0x204C PUSH1 0x20 DUP4 ADD DUP5 PUSH2 0x15F4 JUMP JUMPDEST SWAP4 SWAP3 POP POP POP JUMP INVALID LOG2 PUSH5 0x6970667358 0x22 SLT KECCAK256 SGT GT PUSH14 0x619A82C834BFAB15ECD5176CA355 0xB4 SSTORE 0xC9 0xAA 0xA5 0x25 SLT SWAP2 SWAP13 0xD6 ADDRESS DUP9 NOT 0xC8 CALLCODE PUSH5 0x736F6C6343 STOP ADDMOD 0xC STOP CALLER "
		},
		"gasEstimates": {
			"creation": {
				"codeDepositCost": "1665800",
				"executionCost": "infinite",
				"totalCost": "infinite"
			},
			"external": {
				"freezeNftAddress()": "infinite",
				"getOnSaleTokensLength()": "1168",
				"getTokenData()": "infinite",
				"getTokenInfo(uint256)": "infinite",
				"getTokenPrice(uint256)": "infinite",
				"onSaleTokens(uint256)": "infinite",
				"purchaseToken(uint256)": "infinite",
				"setForSaleToken(uint256,uint256)": "infinite",
				"tokenData(uint256)": "infinite",
				"tokenPrices(uint256)": "infinite"
			}
		},
		"methodIdentifiers": {
			"freezeNftAddress()": "148507b8",
			"getOnSaleTokensLength()": "42f23b9e",
			"getTokenData()": "d16aad61",
			"getTokenInfo(uint256)": "8c7a63ae",
			"getTokenPrice(uint256)": "c457fb37",
			"onSaleTokens(uint256)": "49f0f84a",
			"purchaseToken(uint256)": "c2db2c42",
			"setForSaleToken(uint256,uint256)": "6a4c3adf",
			"tokenData(uint256)": "b4b5b48f",
			"tokenPrices(uint256)": "e5afe3e6"
		}
	},
	"abi": [
		{
			"inputs": [
				{
					"internalType": "address",
					"name": "_freezeNftAddress",
					"type": "address"
				}
			],
			"stateMutability": "nonpayable",
			"type": "constructor"
		},
		{
			"inputs": [],
			"name": "freezeNftAddress",
			"outputs": [
				{
					"internalType": "contract FreezeNFT",
					"name": "",
					"type": "address"
				}
			],
			"stateMutability": "view",
			"type": "function"
		},
		{
			"inputs": [],
			"name": "getOnSaleTokensLength",
			"outputs": [
				{
					"internalType": "uint256",
					"name": "",
					"type": "uint256"
				}
			],
			"stateMutability": "view",
			"type": "function"
		},
		{
			"inputs": [],
			"name": "getTokenData",
			"outputs": [
				{
					"components": [
						{
							"internalType": "uint256",
							"name": "tokenId",
							"type": "uint256"
						},
						{
							"internalType": "uint256",
							"name": "lockClaAmount",
							"type": "uint256"
						},
						{
							"internalType": "uint256",
							"name": "startTimeStemp",
							"type": "uint256"
						},
						{
							"internalType": "uint256",
							"name": "lockPeriod",
							"type": "uint256"
						},
						{
							"internalType": "uint256",
							"name": "endTimestamp",
							"type": "uint256"
						},
						{
							"internalType": "address",
							"name": "owner",
							"type": "address"
						}
					],
					"internalType": "struct SaleToken.TokensData[]",
					"name": "",
					"type": "tuple[]"
				}
			],
			"stateMutability": "view",
			"type": "function"
		},
		{
			"inputs": [
				{
					"internalType": "uint256",
					"name": "_tokenId",
					"type": "uint256"
				}
			],
			"name": "getTokenInfo",
			"outputs": [
				{
					"internalType": "uint256",
					"name": "",
					"type": "uint256"
				},
				{
					"internalType": "uint256",
					"name": "",
					"type": "uint256"
				},
				{
					"internalType": "uint256",
					"name": "",
					"type": "uint256"
				},
				{
					"internalType": "uint256",
					"name": "",
					"type": "uint256"
				},
				{
					"internalType": "address",
					"name": "",
					"type": "address"
				}
			],
			"stateMutability": "view",
			"type": "function"
		},
		{
			"inputs": [
				{
					"internalType": "uint256",
					"name": "_tokenId",
					"type": "uint256"
				}
			],
			"name": "getTokenPrice",
			"outputs": [
				{
					"internalType": "uint256",
					"name": "",
					"type": "uint256"
				}
			],
			"stateMutability": "view",
			"type": "function"
		},
		{
			"inputs": [
				{
					"internalType": "uint256",
					"name": "",
					"type": "uint256"
				}
			],
			"name": "onSaleTokens",
			"outputs": [
				{
					"internalType": "uint256",
					"name": "tokenId",
					"type": "uint256"
				},
				{
					"internalType": "uint256",
					"name": "tokenPrice",
					"type": "uint256"
				},
				{
					"internalType": "uint256",
					"name": "lockClaAmount",
					"type": "uint256"
				},
				{
					"internalType": "uint256",
					"name": "startTimeStemp",
					"type": "uint256"
				},
				{
					"internalType": "uint256",
					"name": "lockPeriod",
					"type": "uint256"
				},
				{
					"internalType": "uint256",
					"name": "endTimestamp",
					"type": "uint256"
				},
				{
					"internalType": "address",
					"name": "owner",
					"type": "address"
				}
			],
			"stateMutability": "view",
			"type": "function"
		},
		{
			"inputs": [
				{
					"internalType": "uint256",
					"name": "_tokenId",
					"type": "uint256"
				}
			],
			"name": "purchaseToken",
			"outputs": [],
			"stateMutability": "payable",
			"type": "function"
		},
		{
			"inputs": [
				{
					"internalType": "uint256",
					"name": "_tokenId",
					"type": "uint256"
				},
				{
					"internalType": "uint256",
					"name": "_price",
					"type": "uint256"
				}
			],
			"name": "setForSaleToken",
			"outputs": [],
			"stateMutability": "nonpayable",
			"type": "function"
		},
		{
			"inputs": [
				{
					"internalType": "uint256",
					"name": "",
					"type": "uint256"
				}
			],
			"name": "tokenData",
			"outputs": [
				{
					"internalType": "uint256",
					"name": "tokenId",
					"type": "uint256"
				},
				{
					"internalType": "uint256",
					"name": "lockClaAmount",
					"type": "uint256"
				},
				{
					"internalType": "uint256",
					"name": "startTimeStemp",
					"type": "uint256"
				},
				{
					"internalType": "uint256",
					"name": "lockPeriod",
					"type": "uint256"
				},
				{
					"internalType": "uint256",
					"name": "endTimestamp",
					"type": "uint256"
				},
				{
					"internalType": "address",
					"name": "owner",
					"type": "address"
				}
			],
			"stateMutability": "view",
			"type": "function"
		},
		{
			"inputs": [
				{
					"internalType": "uint256",
					"name": "",
					"type": "uint256"
				}
			],
			"name": "tokenPrices",
			"outputs": [
				{
					"internalType": "uint256",
					"name": "",
					"type": "uint256"
				}
			],
			"stateMutability": "view",
			"type": "function"
		}
	]
}